Component: ARM Compiler 5.06 update 6 (build 750) Tool: armlink [4d35ed]

==============================================================================

Section Cross References

    clock.o(i.rt_tick_get) refers to clock.o(.data) for rt_tick
    clock.o(i.rt_tick_increase) refers to thread.o(i.rt_thread_self) for rt_thread_self
    clock.o(i.rt_tick_increase) refers to thread.o(i.rt_thread_yield) for rt_thread_yield
    clock.o(i.rt_tick_increase) refers to timer.o(i.rt_timer_check) for rt_timer_check
    clock.o(i.rt_tick_increase) refers to clock.o(.data) for rt_tick
    clock.o(i.rt_tick_set) refers to context_rvds.o(.text) for rt_hw_interrupt_disable
    clock.o(i.rt_tick_set) refers to clock.o(.data) for rt_tick
    components.o(i.$Sub$$main) refers to context_rvds.o(.text) for rt_hw_interrupt_disable
    components.o(i.$Sub$$main) refers to components.o(i.rtthread_startup) for rtthread_startup
    components.o(i.main_thread_entry) refers to components.o(i.rt_components_init) for rt_components_init
    components.o(i.main_thread_entry) refers to main.o(i.main) for $Super$$main
    components.o(i.rt_application_init) refers to thread.o(i.rt_thread_create) for rt_thread_create
    components.o(i.rt_application_init) refers to kservice.o(i.rt_assert_handler) for rt_assert_handler
    components.o(i.rt_application_init) refers to thread.o(i.rt_thread_startup) for rt_thread_startup
    components.o(i.rt_application_init) refers to components.o(i.main_thread_entry) for main_thread_entry
    components.o(i.rt_application_init) refers to components.o(.constdata) for __FUNCTION__
    components.o(i.rt_components_board_init) refers to components.o(.rti_fn.0.end) for __rt_init_rti_board_start
    components.o(i.rt_components_board_init) refers to components.o(.rti_fn.1.end) for __rt_init_rti_board_end
==============================================================================

Removing Unused input sections from the image.

    Removing clock.o(i.rt_system_tick_init), (2 bytes).
    Removing clock.o(i.rt_tick_set), (28 bytes).
    Removing device.o(i.rt_device_control), (148 bytes).
    Removing device.o(i.rt_device_create), (46 bytes).
    Removing device.o(i.rt_device_destroy), (200 bytes).
    Removing device.o(i.rt_device_init), (140 bytes).
    Removing device.o(i.rt_device_init_all), (4 bytes).
    Removing device.o(i.rt_device_read), (180 bytes).
    Removing device.o(i.rt_device_register), (52 bytes).
    Removing device.o(i.rt_device_set_rx_indicate), (128 bytes).
    Removing device.o(i.rt_device_set_tx_complete), (128 bytes).
    Removing device.o(i.rt_device_unregister), (184 bytes).
    Removing idle.o(i.rt_thread_idle_delhook), (68 bytes).
    Removing idle.o(i.rt_thread_idle_gethandler), (16 bytes).
    Removing idle.o(i.rt_thread_idle_sethook), (64 bytes).
    Removing ipc.o(i.rt_event_control), (120 bytes).
    Removing ipc.o(i.rt_event_create), (132 bytes).
    Removing ipc.o(i.rt_event_delete), (256 bytes).
==============================================================================

Image Symbol Table

    Local Symbols

    Symbol Name                              Value     Ov Type        Size  Object(Section)

    ../clib/angel/boardlib.s                 0x00000000   Number         0  boardshut.o ABSOLUTE
    ../clib/angel/boardlib.s                 0x00000000   Number         0  boardinit3.o ABSOLUTE
    ../clib/angel/boardlib.s                 0x00000000   Number         0  boardinit2.o ABSOLUTE
    ../clib/angel/boardlib.s                 0x00000000   Number         0  boardinit1.o ABSOLUTE
    ../clib/angel/dczerorl2.s                0x00000000   Number         0  __dczerorl2.o ABSOLUTE
    ../clib/angel/handlers.s                 0x00000000   Number         0  __scatter_zi.o ABSOLUTE
    ../clib/angel/kernel.s                   0x00000000   Number         0  __rtentry4.o ABSOLUTE
    ../clib/angel/kernel.s                   0x00000000   Number         0  rtexit.o ABSOLUTE
    ../clib/angel/kernel.s                   0x00000000   Number         0  __rtentry2.o ABSOLUTE
    ../clib/angel/kernel.s                   0x00000000   Number         0  __rtentry.o ABSOLUTE
    ../clib/angel/kernel.s                   0x00000000   Number         0  rtexit2.o ABSOLUTE
    ../clib/angel/rt.s                       0x00000000   Number         0  rt_raise.o ABSOLUTE
    ../clib/angel/scatter.s                  0x00000000   Number         0  __scatter.o ABSOLUTE
    ../clib/angel/startup.s                  0x00000000   Number         0  __main.o ABSOLUTE
    ../clib/angel/sys.s                      0x00000000   Number         0  sys_stackheap_outer.o ABSOLUTE
    ../clib/angel/sys.s                      0x00000000   Number         0  indicate_semi.o ABSOLUTE
    ../clib/angel/sys.s                      0x00000000   Number         0  use_no_semi.o ABSOLUTE
    ../clib/angel/sys.s                      0x00000000   Number         0  libspace.o ABSOLUTE
    ../clib/angel/sysapp.c                   0x00000000   Number         0  sys_command.o ABSOLUTE
    ../clib/angel/sysapp.c                   0x00000000   Number         0  sys_exit.o ABSOLUTE
    ../clib/angel/sysapp.c                   0x00000000   Number         0  sys_wrch.o ABSOLUTE
    ../clib/armsys.c                         0x00000000   Number         0  no_argv.o ABSOLUTE
    ../clib/armsys.c                         0x00000000   Number         0  argv_veneer.o ABSOLUTE
    ../clib/armsys.c                         0x00000000   Number         0  argv_veneer.o ABSOLUTE
    ../clib/armsys.c                         0x00000000   Number         0  _get_argv_nomalloc.o ABSOLUTE
    ../clib/heapalloc.c                      0x00000000   Number         0  hrguard.o ABSOLUTE
    ../clib/heapaux.c                        0x00000000   Number         0  heapauxi.o ABSOLUTE
    ../clib/libinit.s                        0x00000000   Number         0  libshutdown2.o ABSOLUTE
    ../clib/libinit.s                        0x00000000   Number         0  libshutdown.o ABSOLUTE
    ../clib/libinit.s                        0x00000000   Number         0  libinit.o ABSOLUTE
    ../clib/libinit.s                        0x00000000   Number         0  libinit2.o ABSOLUTE
    ../clib/signal.c                         0x00000000   Number         0  defsig_rtmem_formal.o ABSOLUTE
    ../clib/signal.c                         0x00000000   Number         0  defsig_rtmem_outer.o ABSOLUTE
    ../clib/signal.c                         0x00000000   Number         0  defsig_cppl_inner.o ABSOLUTE
    ../clib/signal.c                         0x00000000   Number         0  defsig_rtmem_inner.o ABSOLUTE
    ../clib/signal.c                         0x00000000   Number         0  __raise.o ABSOLUTE
    ../clib/signal.c                         0x00000000   Number         0  defsig_general.o ABSOLUTE
    ../clib/signal.c                         0x00000000   Number         0  defsig_abrt_inner.o ABSOLUTE
    ../clib/signal.c                         0x00000000   Number         0  defsig_fpe_inner.o ABSOLUTE
    ../clib/signal.c                         0x00000000   Number         0  defsig_stak_inner.o ABSOLUTE
    ../clib/signal.c                         0x00000000   Number         0  defsig_pvfn_inner.o ABSOLUTE
    ../clib/signal.c                         0x00000000   Number         0  defsig_exit.o ABSOLUTE
    ../clib/signal.c                         0x00000000   Number         0  defsig_segv_inner.o ABSOLUTE
    ../clib/signal.c                         0x00000000   Number         0  defsig_other.o ABSOLUTE
    ../clib/signal.c                         0x00000000   Number         0  defsig_rtred_inner.o ABSOLUTE
    ../clib/signal.s                         0x00000000   Number         0  defsig.o ABSOLUTE
    ../clib/stdlib.c                         0x00000000   Number         0  exit.o ABSOLUTE
    ../fplib/fpinit.s                        0x00000000   Number         0  fpinit.o ABSOLUTE
    ..\..\rt-thread\libcpu\arm\common\backtrace.c 0x00000000   Number         0  backtrace.o ABSOLUTE
    ..\..\rt-thread\libcpu\arm\common\div0.c 0x00000000   Number         0  div0.o ABSOLUTE
    ..\..\rt-thread\libcpu\arm\common\showmem.c 0x00000000   Number         0  showmem.o ABSOLUTE
    ..\..\rt-thread\libcpu\arm\cortex-m4\context_rvds.S 0x00000000   Number         0  context_rvds.o ABSOLUTE
    ..\..\rt-thread\libcpu\arm\cortex-m4\cpuport.c 0x00000000   Number         0  cpuport.o ABSOLUTE
    ..\..\rt-thread\src\clock.c              0x00000000   Number         0  clock.o ABSOLUTE
    ..\..\rt-thread\src\components.c         0x00000000   Number         0  components.o ABSOLUTE
    ..\..\rt-thread\src\cpu.c                0x00000000   Number         0  cpu.o ABSOLUTE
    ..\..\rt-thread\src\device.c             0x00000000   Number         0  device.o ABSOLUTE
    ..\..\rt-thread\src\idle.c               0x00000000   Number         0  idle.o ABSOLUTE
    ..\..\rt-thread\src\ipc.c                0x00000000   Number         0  ipc.o ABSOLUTE
    ..\..\rt-thread\src\irq.c                0x00000000   Number         0  irq.o ABSOLUTE
    ..\..\rt-thread\src\kservice.c           0x00000000   Number         0  kservice.o ABSOLUTE
    ..\..\rt-thread\src\mem.c                0x00000000   Number         0  mem.o ABSOLUTE
    ..\..\rt-thread\src\mempool.c            0x00000000   Number         0  mempool.o ABSOLUTE
    ..\..\rt-thread\src\object.c             0x00000000   Number         0  object.o ABSOLUTE
    ..\..\rt-thread\src\scheduler.c          0x00000000   Number         0  scheduler.o ABSOLUTE
    ..\..\rt-thread\src\signal.c             0x00000000   Number         0  signal.o ABSOLUTE
    ..\..\rt-thread\src\thread.c             0x00000000   Number         0  thread.o ABSOLUTE
    ..\..\rt-thread\src\timer.c              0x00000000   Number         0  timer.o ABSOLUTE
    application\\main.c                      0x00000000   Number         0  main.o ABSOLUTE
    application\main.c                       0x00000000   Number         0  main.o ABSOLUTE
    board\Firmware\CMSIS\GD\GD32E10x\Source\ARM\startup_gd32e10x.s 0x00000000   Number         0  startup_gd32e10x.o ABSOLUTE
    board\Firmware\CMSIS\GD\GD32E10x\Source\system_gd32e10x.c 0x00000000   Number         0  system_gd32e10x.o ABSOLUTE
    board\Firmware\GD32E10x_standard_peripheral\Source\gd32e10x_adc.c 0x00000000   Number         0  gd32e10x_adc.o ABSOLUTE
    board\Firmware\GD32E10x_standard_peripheral\Source\gd32e10x_bkp.c 0x00000000   Number         0  gd32e10x_bkp.o ABSOLUTE
    board\Firmware\GD32E10x_standard_peripheral\Source\gd32e10x_can.c 0x00000000   Number         0  gd32e10x_can.o ABSOLUTE
    board\Firmware\GD32E10x_standard_peripheral\Source\gd32e10x_crc.c 0x00000000   Number         0  gd32e10x_crc.o ABSOLUTE
    board\Firmware\GD32E10x_standard_peripheral\Source\gd32e10x_ctc.c 0x00000000   Number         0  gd32e10x_ctc.o ABSOLUTE
    board\Firmware\GD32E10x_standard_peripheral\Source\gd32e10x_dac.c 0x00000000   Number         0  gd32e10x_dac.o ABSOLUTE
    board\Firmware\GD32E10x_standard_peripheral\Source\gd32e10x_dbg.c 0x00000000   Number         0  gd32e10x_dbg.o ABSOLUTE
    board\Firmware\GD32E10x_standard_peripheral\Source\gd32e10x_dma.c 0x00000000   Number         0  gd32e10x_dma.o ABSOLUTE
    board\Firmware\GD32E10x_standard_peripheral\Source\gd32e10x_exmc.c 0x00000000   Number         0  gd32e10x_exmc.o ABSOLUTE
    board\Firmware\GD32E10x_standard_peripheral\Source\gd32e10x_exti.c 0x00000000   Number         0  gd32e10x_exti.o ABSOLUTE
    board\Firmware\GD32E10x_standard_peripheral\Source\gd32e10x_fmc.c 0x00000000   Number         0  gd32e10x_fmc.o ABSOLUTE
    board\Firmware\GD32E10x_standard_peripheral\Source\gd32e10x_fwdgt.c 0x00000000   Number         0  gd32e10x_fwdgt.o ABSOLUTE
    board\Firmware\GD32E10x_standard_peripheral\Source\gd32e10x_gpio.c 0x00000000   Number         0  gd32e10x_gpio.o ABSOLUTE
    board\Firmware\GD32E10x_standard_peripheral\Source\gd32e10x_i2c.c 0x00000000   Number         0  gd32e10x_i2c.o ABSOLUTE
    board\Firmware\GD32E10x_standard_peripheral\Source\gd32e10x_misc.c 0x00000000   Number         0  gd32e10x_misc.o ABSOLUTE
    board\Firmware\GD32E10x_standard_peripheral\Source\gd32e10x_pmu.c 0x00000000   Number         0  gd32e10x_pmu.o ABSOLUTE
    board\Firmware\GD32E10x_standard_peripheral\Source\gd32e10x_rcu.c 0x00000000   Number         0  gd32e10x_rcu.o ABSOLUTE
    board\Firmware\GD32E10x_standard_peripheral\Source\gd32e10x_rtc.c 0x00000000   Number         0  gd32e10x_rtc.o ABSOLUTE
    board\Firmware\GD32E10x_standard_peripheral\Source\gd32e10x_spi.c 0x00000000   Number         0  gd32e10x_spi.o ABSOLUTE
    board\Firmware\GD32E10x_standard_peripheral\Source\gd32e10x_timer.c 0x00000000   Number         0  gd32e10x_timer.o ABSOLUTE
    board\Firmware\GD32E10x_standard_peripheral\Source\gd32e10x_usart.c 0x00000000   Number         0  gd32e10x_usart.o ABSOLUTE
    board\Firmware\GD32E10x_standard_peripheral\Source\gd32e10x_wwdgt.c 0x00000000   Number         0  gd32e10x_wwdgt.o ABSOLUTE
    board\GD32E10x_Driver\systick.c          0x00000000   Number         0  systick.o ABSOLUTE
    board\\Firmware\\CMSIS\\GD\\GD32E10x\\Source\\system_gd32e10x.c 0x00000000   Number         0  system_gd32e10x.o ABSOLUTE
    board\\Firmware\\GD32E10x_standard_peripheral\\Source\\gd32e10x_adc.c 0x00000000   Number         0  gd32e10x_adc.o ABSOLUTE
    board\\Firmware\\GD32E10x_standard_peripheral\\Source\\gd32e10x_bkp.c 0x00000000   Number         0  gd32e10x_bkp.o ABSOLUTE
    board\\Firmware\\GD32E10x_standard_peripheral\\Source\\gd32e10x_can.c 0x00000000   Number         0  gd32e10x_can.o ABSOLUTE
    board\\Firmware\\GD32E10x_standard_peripheral\\Source\\gd32e10x_crc.c 0x00000000   Number         0  gd32e10x_crc.o ABSOLUTE
    board\\Firmware\\GD32E10x_standard_peripheral\\Source\\gd32e10x_ctc.c 0x00000000   Number         0  gd32e10x_ctc.o ABSOLUTE
    board\\Firmware\\GD32E10x_standard_peripheral\\Source\\gd32e10x_dac.c 0x00000000   Number         0  gd32e10x_dac.o ABSOLUTE
    board\\Firmware\\GD32E10x_standard_peripheral\\Source\\gd32e10x_dbg.c 0x00000000   Number         0  gd32e10x_dbg.o ABSOLUTE
    board\\Firmware\\GD32E10x_standard_peripheral\\Source\\gd32e10x_dma.c 0x00000000   Number         0  gd32e10x_dma.o ABSOLUTE
    board\\Firmware\\GD32E10x_standard_peripheral\\Source\\gd32e10x_exmc.c 0x00000000   Number         0  gd32e10x_exmc.o ABSOLUTE
    board\\Firmware\\GD32E10x_standard_peripheral\\Source\\gd32e10x_exti.c 0x00000000   Number         0  gd32e10x_exti.o ABSOLUTE
    board\\Firmware\\GD32E10x_standard_peripheral\\Source\\gd32e10x_fmc.c 0x00000000   Number         0  gd32e10x_fmc.o ABSOLUTE
    board\\Firmware\\GD32E10x_standard_peripheral\\Source\\gd32e10x_fwdgt.c 0x00000000   Number         0  gd32e10x_fwdgt.o ABSOLUTE
    board\\Firmware\\GD32E10x_standard_peripheral\\Source\\gd32e10x_gpio.c 0x00000000   Number         0  gd32e10x_gpio.o ABSOLUTE
    board\\Firmware\\GD32E10x_standard_peripheral\\Source\\gd32e10x_i2c.c 0x00000000   Number         0  gd32e10x_i2c.o ABSOLUTE
    board\\Firmware\\GD32E10x_standard_peripheral\\Source\\gd32e10x_misc.c 0x00000000   Number         0  gd32e10x_misc.o ABSOLUTE
    board\\Firmware\\GD32E10x_standard_peripheral\\Source\\gd32e10x_pmu.c 0x00000000   Number         0  gd32e10x_pmu.o ABSOLUTE
    board\\Firmware\\GD32E10x_standard_peripheral\\Source\\gd32e10x_rcu.c 0x00000000   Number         0  gd32e10x_rcu.o ABSOLUTE
    board\\Firmware\\GD32E10x_standard_peripheral\\Source\\gd32e10x_rtc.c 0x00000000   Number         0  gd32e10x_rtc.o ABSOLUTE
    board\\Firmware\\GD32E10x_standard_peripheral\\Source\\gd32e10x_spi.c 0x00000000   Number         0  gd32e10x_spi.o ABSOLUTE
    board\\Firmware\\GD32E10x_standard_peripheral\\Source\\gd32e10x_timer.c 0x00000000   Number         0  gd32e10x_timer.o ABSOLUTE
    board\\Firmware\\GD32E10x_standard_peripheral\\Source\\gd32e10x_usart.c 0x00000000   Number         0  gd32e10x_usart.o ABSOLUTE
    board\\Firmware\\GD32E10x_standard_peripheral\\Source\\gd32e10x_wwdgt.c 0x00000000   Number         0  gd32e10x_wwdgt.o ABSOLUTE
    board\\GD32E10x_Driver\\systick.c        0x00000000   Number         0  systick.o ABSOLUTE
    board\\board.c                           0x00000000   Number         0  board.o ABSOLUTE
    board\\rtt_device_drivers\\drv_common.c  0x00000000   Number         0  drv_common.o ABSOLUTE
    board\board.c                            0x00000000   Number         0  board.o ABSOLUTE
    board\rtt_device_drivers\drv_common.c    0x00000000   Number         0  drv_common.o ABSOLUTE
    dc.s                                     0x00000000   Number         0  dc.o ABSOLUTE
    RESET                                    0x08000000   Section      336  startup_gd32e10x.o(RESET)
    !!!main                                  0x08000150   Section        8  __main.o(!!!main)
    !!!scatter                               0x08000158   Section       52  __scatter.o(!!!scatter)
    !!dczerorl2                              0x0800018c   Section       90  __dczerorl2.o(!!dczerorl2)
    !!handler_zi                             0x080001e8   Section       28  __scatter_zi.o(!!handler_zi)
    .ARM.Collect$$libinit$$00000000          0x08000204   Section        2  libinit.o(.ARM.Collect$$libinit$$00000000)
    .ARM.Collect$$libinit$$00000002          0x08000206   Section        0  libinit2.o(.ARM.Collect$$libinit$$00000002)
    .ARM.Collect$$libinit$$00000004          0x08000206   Section        0  libinit2.o(.ARM.Collect$$libinit$$00000004)
    .ARM.Collect$$libinit$$0000000A          0x08000206   Section        0  libinit2.o(.ARM.Collect$$libinit$$0000000A)
    .ARM.Collect$$libinit$$0000000C          0x08000206   Section        0  libinit2.o(.ARM.Collect$$libinit$$0000000C)
    .ARM.Collect$$libinit$$0000000E          0x08000206   Section        0  libinit2.o(.ARM.Collect$$libinit$$0000000E)
    .ARM.Collect$$libinit$$00000011          0x08000206   Section        0  libinit2.o(.ARM.Collect$$libinit$$00000011)
    .ARM.Collect$$libinit$$00000013          0x08000206   Section        0  libinit2.o(.ARM.Collect$$libinit$$00000013)
    .ARM.Collect$$libinit$$00000015          0x08000206   Section        0  libinit2.o(.ARM.Collect$$libinit$$00000015)
    .ARM.Collect$$libinit$$00000017          0x08000206   Section        0  libinit2.o(.ARM.Collect$$libinit$$00000017)
    .ARM.Collect$$libinit$$00000019          0x08000206   Section        0  libinit2.o(.ARM.Collect$$libinit$$00000019)
    .ARM.Collect$$libinit$$0000001B          0x08000206   Section        0  libinit2.o(.ARM.Collect$$libinit$$0000001B)
    .ARM.Collect$$libinit$$0000001D          0x08000206   Section        0  libinit2.o(.ARM.Collect$$libinit$$0000001D)
    .ARM.Collect$$libinit$$0000001F          0x08000206   Section        0  libinit2.o(.ARM.Collect$$libinit$$0000001F)
    .ARM.Collect$$libinit$$00000021          0x08000206   Section        0  libinit2.o(.ARM.Collect$$libinit$$00000021)
    .ARM.Collect$$libinit$$00000023          0x08000206   Section        0  libinit2.o(.ARM.Collect$$libinit$$00000023)
    .ARM.Collect$$libinit$$00000025          0x08000206   Section        0  libinit2.o(.ARM.Collect$$libinit$$00000025)
    .ARM.Collect$$libinit$$0000002C          0x08000206   Section        0  libinit2.o(.ARM.Collect$$libinit$$0000002C)
    .ARM.Collect$$libinit$$0000002E          0x08000206   Section        0  libinit2.o(.ARM.Collect$$libinit$$0000002E)
    .ARM.Collect$$libinit$$00000030          0x08000206   Section        0  libinit2.o(.ARM.Collect$$libinit$$00000030)
    .ARM.Collect$$libinit$$00000032          0x08000206   Section        0  libinit2.o(.ARM.Collect$$libinit$$00000032)
    .ARM.Collect$$libinit$$00000033          0x08000206   Section        2  libinit2.o(.ARM.Collect$$libinit$$00000033)
    .ARM.Collect$$libshutdown$$00000000      0x08000208   Section        2  libshutdown.o(.ARM.Collect$$libshutdown$$00000000)
    .ARM.Collect$$libshutdown$$00000002      0x0800020a   Section        0  libshutdown2.o(.ARM.Collect$$libshutdown$$00000002)
    .ARM.Collect$$libshutdown$$00000004      0x0800020a   Section        0  libshutdown2.o(.ARM.Collect$$libshutdown$$00000004)
    .ARM.Collect$$libshutdown$$00000007      0x0800020a   Section        0  libshutdown2.o(.ARM.Collect$$libshutdown$$00000007)
    .ARM.Collect$$libshutdown$$0000000A      0x0800020a   Section        0  libshutdown2.o(.ARM.Collect$$libshutdown$$0000000A)
    .ARM.Collect$$libshutdown$$0000000C      0x0800020a   Section        0  libshutdown2.o(.ARM.Collect$$libshutdown$$0000000C)
    .ARM.Collect$$libshutdown$$0000000F      0x0800020a   Section        0  libshutdown2.o(.ARM.Collect$$libshutdown$$0000000F)
    .ARM.Collect$$libshutdown$$00000010      0x0800020a   Section        2  libshutdown2.o(.ARM.Collect$$libshutdown$$00000010)
    .ARM.Collect$$rtentry$$00000000          0x0800020c   Section        0  __rtentry.o(.ARM.Collect$$rtentry$$00000000)
    .ARM.Collect$$rtentry$$00000002          0x0800020c   Section        0  __rtentry2.o(.ARM.Collect$$rtentry$$00000002)
    .ARM.Collect$$rtentry$$00000004          0x0800020c   Section        6  __rtentry4.o(.ARM.Collect$$rtentry$$00000004)
    .ARM.Collect$$rtentry$$00000009          0x08000212   Section        0  __rtentry2.o(.ARM.Collect$$rtentry$$00000009)
    .ARM.Collect$$rtentry$$0000000A          0x08000212   Section        4  __rtentry2.o(.ARM.Collect$$rtentry$$0000000A)
    .ARM.Collect$$rtentry$$0000000C          0x08000216   Section        0  __rtentry2.o(.ARM.Collect$$rtentry$$0000000C)
    .ARM.Collect$$rtentry$$0000000D          0x08000216   Section        8  __rtentry2.o(.ARM.Collect$$rtentry$$0000000D)
    .ARM.Collect$$rtexit$$00000000           0x0800021e   Section        2  rtexit.o(.ARM.Collect$$rtexit$$00000000)
    .ARM.Collect$$rtexit$$00000002           0x08000220   Section        0  rtexit2.o(.ARM.Collect$$rtexit$$00000002)
    .ARM.Collect$$rtexit$$00000003           0x08000220   Section        4  rtexit2.o(.ARM.Collect$$rtexit$$00000003)
    .ARM.Collect$$rtexit$$00000004           0x08000224   Section        6  rtexit2.o(.ARM.Collect$$rtexit$$00000004)
    .text                                    0x0800022c   Section      244  context_rvds.o(.text)
    .text                                    0x08000320   Section       64  startup_gd32e10x.o(.text)
    .text                                    0x08000360   Section        0  heapauxi.o(.text)
    .text                                    0x08000366   Section       74  sys_stackheap_outer.o(.text)
    .text                                    0x080003b0   Section        0  exit.o(.text)
    .text                                    0x080003c4   Section        8  libspace.o(.text)
    .text                                    0x080003cc   Section        0  sys_exit.o(.text)
    .text                                    0x080003d8   Section        2  use_no_semi.o(.text)
    .text                                    0x080003da   Section        0  indicate_semi.o(.text)
    i.$Sub$$main                             0x080003da   Section        0  components.o(i.$Sub$$main)
    i.NVIC_SetPriority                       0x080003e8   Section        0  systick.o(i.NVIC_SetPriority)
    NVIC_SetPriority                         0x080003e9   Thumb Code    32  systick.o(i.NVIC_SetPriority)
    i.SysTick_Handler                        0x08000410   Section        0  drv_common.o(i.SysTick_Handler)
    i.SystemInit                             0x08000424   Section        0  system_gd32e10x.o(i.SystemInit)
    i.__rt_ffs                               0x0800046c   Section        0  kservice.o(i.__rt_ffs)
    i._get_highest_priority_thread           0x080004b8   Section        0  scheduler.o(i._get_highest_priority_thread)
    _get_highest_priority_thread             0x080004b9   Thumb Code    30  scheduler.o(i._get_highest_priority_thread)
    i._has_defunct_thread                    0x080004e0   Section        0  idle.o(i._has_defunct_thread)
    _has_defunct_thread                      0x080004e1   Thumb Code    16  idle.o(i._has_defunct_thread)
    i._rt_scheduler_stack_check              0x080004f4   Section        0  scheduler.o(i._rt_scheduler_stack_check)
    _rt_scheduler_stack_check                0x080004f5   Thumb Code    86  scheduler.o(i._rt_scheduler_stack_check)
    i._rt_thread_init                        0x080005b8   Section        0  thread.o(i._rt_thread_init)
    _rt_thread_init                          0x080005b9   Thumb Code   156  thread.o(i._rt_thread_init)
    i._rt_timer_init                         0x08000688   Section        0  timer.o(i._rt_timer_init)
    _rt_timer_init                           0x08000689   Thumb Code    66  timer.o(i._rt_timer_init)
    i._rt_timer_remove                       0x080006ca   Section        0  timer.o(i._rt_timer_remove)
    _rt_timer_remove                         0x080006cb   Thumb Code    46  timer.o(i._rt_timer_remove)
    i.delay_decrement                        0x080006f8   Section        0  systick.o(i.delay_decrement)
    i.gpio_init                              0x08000710   Section        0  gd32e10x_gpio.o(i.gpio_init)
    i.gpio_pin_remap_config                  0x080007cc   Section        0  gd32e10x_gpio.o(i.gpio_pin_remap_config)
    i.main                                   0x0800085c   Section        0  main.o(i.main)
    i.main_thread_entry                      0x08000888   Section        0  components.o(i.main_thread_entry)
    i.nvic_irq_enable                        0x08000898   Section        0  gd32e10x_misc.o(i.nvic_irq_enable)
    i.nvic_priority_group_set                0x08000944   Section        0  gd32e10x_misc.o(i.nvic_priority_group_set)
    i.nvic_vector_table_set                  0x08000958   Section        0  gd32e10x_misc.o(i.nvic_vector_table_set)
    i.plug_holes                             0x0800096c   Section        0  mem.o(i.plug_holes)
    plug_holes                               0x0800096d   Thumb Code   160  mem.o(i.plug_holes)
    i.print_number                           0x08000a78   Section        0  kservice.o(i.print_number)
    print_number                             0x08000a79   Thumb Code   400  kservice.o(i.print_number)
    i.rcu_clock_freq_get                     0x08000c10   Section        0  gd32e10x_rcu.o(i.rcu_clock_freq_get)
    i.rcu_periph_clock_enable                0x08000d94   Section        0  gd32e10x_rcu.o(i.rcu_periph_clock_enable)
    i.rcu_periph_reset_disable               0x08000db4   Section        0  gd32e10x_rcu.o(i.rcu_periph_reset_disable)
    i.rcu_periph_reset_enable                0x08000dd4   Section        0  gd32e10x_rcu.o(i.rcu_periph_reset_enable)
    i.rt_application_init                    0x08000df4   Section        0  components.o(i.rt_application_init)
    i.rt_assert_handler                      0x08000e44   Section        0  kservice.o(i.rt_assert_handler)
    i.rt_components_board_init               0x08000eb8   Section        0  components.o(i.rt_components_board_init)
    i.rt_components_init                     0x08000ed4   Section        0  components.o(i.rt_components_init)
    i.rt_console_set_device                  0x08000ef0   Section        0  kservice.o(i.rt_console_set_device)
    i.rt_device_close                        0x08000f24   Section        0  device.o(i.rt_device_close)
    i.rt_device_find                         0x08000fd0   Section        0  device.o(i.rt_device_find)
    i.rt_device_open                         0x0800104c   Section        0  device.o(i.rt_device_open)
    i.rt_device_write                        0x08001194   Section        0  device.o(i.rt_device_write)
    i.rt_enter_critical                      0x08001248   Section        0  scheduler.o(i.rt_enter_critical)
    i.rt_exit_critical                       0x08001268   Section        0  scheduler.o(i.rt_exit_critical)
    i.rt_free                                0x080012a4   Section        0  mem.o(i.rt_free)
    i.rt_hw_board_init                       0x080014ac   Section        0  drv_common.o(i.rt_hw_board_init)
    i.rt_hw_console_output                   0x08001570   Section        0  drv_common.o(i.rt_hw_console_output)
    i.rt_hw_hard_fault_exception             0x080015d0   Section        0  cpuport.o(i.rt_hw_hard_fault_exception)
    i.rt_hw_stack_init                       0x080017f4   Section        0  cpuport.o(i.rt_hw_stack_init)
    i.rt_hw_systick_init                     0x08001840   Section        0  drv_common.o(i.rt_hw_systick_init)
    i.rt_interrupt_enter                     0x08001858   Section        0  irq.o(i.rt_interrupt_enter)
    i.rt_interrupt_get_nest                  0x08001890   Section        0  irq.o(i.rt_interrupt_get_nest)
    i.rt_interrupt_leave                     0x080018ac   Section        0  irq.o(i.rt_interrupt_leave)
    i.rt_ipc_list_resume                     0x080018e4   Section        0  ipc.o(i.rt_ipc_list_resume)
    rt_ipc_list_resume                       0x080018e5   Thumb Code    24  ipc.o(i.rt_ipc_list_resume)
    i.rt_ipc_list_suspend                    0x080018fc   Section        0  ipc.o(i.rt_ipc_list_suspend)
    rt_ipc_list_suspend                      0x080018fd   Thumb Code   108  ipc.o(i.rt_ipc_list_suspend)
    i.rt_ipc_object_init                     0x08001968   Section        0  ipc.o(i.rt_ipc_object_init)
    rt_ipc_object_init                       0x08001969   Thumb Code    16  ipc.o(i.rt_ipc_object_init)
    i.rt_kprintf                             0x08001978   Section        0  kservice.o(i.rt_kprintf)
    i.rt_list_init                           0x080019e0   Section        0  ipc.o(i.rt_list_init)
    rt_list_init                             0x080019e1   Thumb Code     6  ipc.o(i.rt_list_init)
    i.rt_list_init                           0x080019e6   Section        0  scheduler.o(i.rt_list_init)
    rt_list_init                             0x080019e7   Thumb Code     6  scheduler.o(i.rt_list_init)
    i.rt_list_init                           0x080019ec   Section        0  timer.o(i.rt_list_init)
    rt_list_init                             0x080019ed   Thumb Code     6  timer.o(i.rt_list_init)
    i.rt_list_insert_after                   0x080019f2   Section        0  object.o(i.rt_list_insert_after)
    rt_list_insert_after                     0x080019f3   Thumb Code    14  object.o(i.rt_list_insert_after)
    i.rt_list_insert_after                   0x08001a00   Section        0  thread.o(i.rt_list_insert_after)
    rt_list_insert_after                     0x08001a01   Thumb Code    14  thread.o(i.rt_list_insert_after)
    i.rt_list_insert_after                   0x08001a0e   Section        0  timer.o(i.rt_list_insert_after)
    rt_list_insert_after                     0x08001a0f   Thumb Code    14  timer.o(i.rt_list_insert_after)
    i.rt_list_insert_before                  0x08001a1c   Section        0  ipc.o(i.rt_list_insert_before)
    rt_list_insert_before                    0x08001a1d   Thumb Code    14  ipc.o(i.rt_list_insert_before)
    i.rt_list_isempty                        0x08001a2a   Section        0  ipc.o(i.rt_list_isempty)
    rt_list_isempty                          0x08001a2b   Thumb Code    16  ipc.o(i.rt_list_isempty)
    i.rt_list_isempty                        0x08001a3a   Section        0  timer.o(i.rt_list_isempty)
    rt_list_isempty                          0x08001a3b   Thumb Code    16  timer.o(i.rt_list_isempty)
    i.rt_list_remove                         0x08001a4a   Section        0  object.o(i.rt_list_remove)
    rt_list_remove                           0x08001a4b   Thumb Code    18  object.o(i.rt_list_remove)
    i.rt_list_remove                         0x08001a5c   Section        0  thread.o(i.rt_list_remove)
    rt_list_remove                           0x08001a5d   Thumb Code    18  thread.o(i.rt_list_remove)
    i.rt_malloc                              0x08001a70   Section        0  mem.o(i.rt_malloc)
    i.rt_memset                              0x08001d2c   Section        0  kservice.o(i.rt_memset)
    i.rt_object_allocate                     0x08001d74   Section        0  object.o(i.rt_object_allocate)
    i.rt_object_delete                       0x08001e60   Section        0  object.o(i.rt_object_delete)
    i.rt_object_detach                       0x08001f00   Section        0  object.o(i.rt_object_detach)
    i.rt_object_get_information              0x08001f5c   Section        0  object.o(i.rt_object_get_information)
    i.rt_object_get_type                     0x08001f84   Section        0  object.o(i.rt_object_get_type)
    i.rt_object_init                         0x08001fb8   Section        0  object.o(i.rt_object_init)
    i.rt_object_is_systemobject              0x08002034   Section        0  object.o(i.rt_object_is_systemobject)
    i.rt_schedule                            0x08002070   Section        0  scheduler.o(i.rt_schedule)
    i.rt_schedule_insert_thread              0x0800217c   Section        0  scheduler.o(i.rt_schedule_insert_thread)
    i.rt_schedule_remove_thread              0x08002218   Section        0  scheduler.o(i.rt_schedule_remove_thread)
    i.rt_sem_init                            0x08002298   Section        0  ipc.o(i.rt_sem_init)
    i.rt_sem_release                         0x080022e0   Section        0  ipc.o(i.rt_sem_release)
    i.rt_sem_take                            0x08002370   Section        0  ipc.o(i.rt_sem_take)
    i.rt_set_errno                           0x08002514   Section        0  kservice.o(i.rt_set_errno)
    i.rt_show_version                        0x0800253c   Section        0  kservice.o(i.rt_show_version)
    i.rt_sprintf                             0x080025ec   Section        0  kservice.o(i.rt_sprintf)
    i.rt_strlen                              0x0800260e   Section        0  kservice.o(i.rt_strlen)
    i.rt_strncmp                             0x08002620   Section        0  kservice.o(i.rt_strncmp)
    i.rt_strncpy                             0x08002648   Section        0  kservice.o(i.rt_strncpy)
    i.rt_system_heap_init                    0x0800267c   Section        0  mem.o(i.rt_system_heap_init)
    i.rt_system_scheduler_init               0x080027d0   Section        0  scheduler.o(i.rt_system_scheduler_init)
    i.rt_system_scheduler_start              0x08002810   Section        0  scheduler.o(i.rt_system_scheduler_start)
    i.rt_system_timer_init                   0x08002838   Section        0  timer.o(i.rt_system_timer_init)
    i.rt_system_timer_thread_init            0x08002854   Section        0  timer.o(i.rt_system_timer_thread_init)
    i.rt_thread_create                       0x08002856   Section        0  thread.o(i.rt_thread_create)
    i.rt_thread_exit                         0x080028a8   Section        0  thread.o(i.rt_thread_exit)
    i.rt_thread_idle_entry                   0x080028fc   Section        0  idle.o(i.rt_thread_idle_entry)
    rt_thread_idle_entry                     0x080028fd   Thumb Code    36  idle.o(i.rt_thread_idle_entry)
    i.rt_thread_idle_excute                  0x08002924   Section        0  idle.o(i.rt_thread_idle_excute)
    i.rt_thread_idle_init                    0x08002a08   Section        0  idle.o(i.rt_thread_idle_init)
    i.rt_thread_init                         0x08002a68   Section        0  thread.o(i.rt_thread_init)
    i.rt_thread_mdelay                       0x08002ae4   Section        0  thread.o(i.rt_thread_mdelay)
    i.rt_thread_resume                       0x08002af8   Section        0  thread.o(i.rt_thread_resume)
    i.rt_thread_self                         0x08002b94   Section        0  thread.o(i.rt_thread_self)
    i.rt_thread_sleep                        0x08002ba0   Section        0  thread.o(i.rt_thread_sleep)
    i.rt_thread_startup                      0x08002c20   Section        0  thread.o(i.rt_thread_startup)
    i.rt_thread_suspend                      0x08002ce4   Section        0  thread.o(i.rt_thread_suspend)
    i.rt_thread_timeout                      0x08002dc0   Section        0  thread.o(i.rt_thread_timeout)
    i.rt_thread_yield                        0x08002e74   Section        0  thread.o(i.rt_thread_yield)
    i.rt_tick_from_millisecond               0x08002e7e   Section        0  clock.o(i.rt_tick_from_millisecond)
    i.rt_tick_get                            0x08002ea0   Section        0  clock.o(i.rt_tick_get)
    i.rt_tick_increase                       0x08002eac   Section        0  clock.o(i.rt_tick_increase)
    i.rt_timer_check                         0x08002edc   Section        0  timer.o(i.rt_timer_check)
    i.rt_timer_control                       0x08002f90   Section        0  timer.o(i.rt_timer_control)
    i.rt_timer_detach                        0x08003048   Section        0  timer.o(i.rt_timer_detach)
    i.rt_timer_init                          0x0800311c   Section        0  timer.o(i.rt_timer_init)
    i.rt_timer_start                         0x08003170   Section        0  timer.o(i.rt_timer_start)
    i.rt_timer_stop                          0x08003330   Section        0  timer.o(i.rt_timer_stop)
    i.rt_vsnprintf                           0x080033f0   Section        0  kservice.o(i.rt_vsnprintf)
    i.rt_vsprintf                            0x08003718   Section        0  kservice.o(i.rt_vsprintf)
    i.rti_board_end                          0x0800372e   Section        0  components.o(i.rti_board_end)
    rti_board_end                            0x0800372f   Thumb Code     4  components.o(i.rti_board_end)
    i.rti_board_start                        0x08003732   Section        0  components.o(i.rti_board_start)
    rti_board_start                          0x08003733   Thumb Code     4  components.o(i.rti_board_start)
    i.rti_end                                0x08003736   Section        0  components.o(i.rti_end)
    rti_end                                  0x08003737   Thumb Code     4  components.o(i.rti_end)
    i.rti_start                              0x0800373a   Section        0  components.o(i.rti_start)
    rti_start                                0x0800373b   Thumb Code     4  components.o(i.rti_start)
    i.rtthread_startup                       0x0800373e   Section        0  components.o(i.rtthread_startup)
    i.skip_atoi                              0x08003768   Section        0  kservice.o(i.skip_atoi)
    skip_atoi                                0x08003769   Thumb Code    38  kservice.o(i.skip_atoi)
    i.system_clock_120m_hxtal                0x08003790   Section        0  system_gd32e10x.o(i.system_clock_120m_hxtal)
    system_clock_120m_hxtal                  0x08003791   Thumb Code   232  system_gd32e10x.o(i.system_clock_120m_hxtal)
    i.system_clock_config                    0x08003890   Section        0  system_gd32e10x.o(i.system_clock_config)
    system_clock_config                      0x08003891   Thumb Code     8  system_gd32e10x.o(i.system_clock_config)
    i.systick_config                         0x08003898   Section        0  systick.o(i.systick_config)
    i.usart_baudrate_set                     0x080038e4   Section        0  gd32e10x_usart.o(i.usart_baudrate_set)
    i.usart_data_transmit                    0x08003974   Section        0  gd32e10x_usart.o(i.usart_data_transmit)
    i.usart_deinit                           0x0800397c   Section        0  gd32e10x_usart.o(i.usart_deinit)
    i.usart_enable                           0x08003a0c   Section        0  gd32e10x_usart.o(i.usart_enable)
    i.usart_flag_clear                       0x08003a16   Section        0  gd32e10x_usart.o(i.usart_flag_clear)
    i.usart_flag_get                         0x08003a30   Section        0  gd32e10x_usart.o(i.usart_flag_get)
    i.usart_hardware_flow_cts_config         0x08003a4e   Section        0  gd32e10x_usart.o(i.usart_hardware_flow_cts_config)
    i.usart_hardware_flow_rts_config         0x08003a5e   Section        0  gd32e10x_usart.o(i.usart_hardware_flow_rts_config)
    i.usart_parity_config                    0x08003a6e   Section        0  gd32e10x_usart.o(i.usart_parity_config)
    i.usart_receive_config                   0x08003a7e   Section        0  gd32e10x_usart.o(i.usart_receive_config)
    i.usart_stop_bit_set                     0x08003a8e   Section        0  gd32e10x_usart.o(i.usart_stop_bit_set)
    i.usart_transmit_config                  0x08003a9e   Section        0  gd32e10x_usart.o(i.usart_transmit_config)
    i.usart_word_length_set                  0x08003aae   Section        0  gd32e10x_usart.o(i.usart_word_length_set)
    .constdata                               0x08003abe   Section       20  components.o(.constdata)
    __FUNCTION__                             0x08003abe   Data          20  components.o(.constdata)
    .constdata                               0x08003ad2   Section      201  device.o(.constdata)
    __FUNCTION__                             0x08003ad2   Data          21  device.o(.constdata)
    __FUNCTION__                             0x08003ae7   Data          15  device.o(.constdata)
    __FUNCTION__                             0x08003af6   Data          18  device.o(.constdata)
    __FUNCTION__                             0x08003b08   Data          15  device.o(.constdata)
    __FUNCTION__                             0x08003b17   Data          15  device.o(.constdata)
    __FUNCTION__                             0x08003b26   Data          16  device.o(.constdata)
    __FUNCTION__                             0x08003b36   Data          15  device.o(.constdata)
    __FUNCTION__                             0x08003b45   Data          16  device.o(.constdata)
    __FUNCTION__                             0x08003b55   Data          18  device.o(.constdata)
    __FUNCTION__                             0x08003b67   Data          26  device.o(.constdata)
    __FUNCTION__                             0x08003b81   Data          26  device.o(.constdata)
    .constdata                               0x08003b9b   Section       22  idle.o(.constdata)
    __FUNCTION__                             0x08003b9b   Data          22  idle.o(.constdata)
    .constdata                               0x08003bb1   Section      503  ipc.o(.constdata)
    __FUNCTION__                             0x08003bb1   Data          12  ipc.o(.constdata)
    __FUNCTION__                             0x08003bbd   Data          14  ipc.o(.constdata)
    __FUNCTION__                             0x08003bcb   Data          14  ipc.o(.constdata)
    __FUNCTION__                             0x08003bd9   Data          14  ipc.o(.constdata)
    __FUNCTION__                             0x08003be7   Data          12  ipc.o(.constdata)
    __FUNCTION__                             0x08003bf3   Data          15  ipc.o(.constdata)
    __FUNCTION__                             0x08003c02   Data          15  ipc.o(.constdata)
    __FUNCTION__                             0x08003c11   Data          14  ipc.o(.constdata)
    __FUNCTION__                             0x08003c1f   Data          16  ipc.o(.constdata)
    __FUNCTION__                             0x08003c2f   Data          16  ipc.o(.constdata)
    __FUNCTION__                             0x08003c3f   Data          16  ipc.o(.constdata)
    __FUNCTION__                             0x08003c4f   Data          14  ipc.o(.constdata)
    __FUNCTION__                             0x08003c5d   Data          17  ipc.o(.constdata)
    __FUNCTION__                             0x08003c6e   Data          17  ipc.o(.constdata)
    __FUNCTION__                             0x08003c7f   Data          14  ipc.o(.constdata)
    __FUNCTION__                             0x08003c8d   Data          16  ipc.o(.constdata)
    __FUNCTION__                             0x08003c9d   Data          16  ipc.o(.constdata)
    __FUNCTION__                             0x08003cad   Data          16  ipc.o(.constdata)
    __FUNCTION__                             0x08003cbd   Data          14  ipc.o(.constdata)
    __FUNCTION__                             0x08003ccb   Data          14  ipc.o(.constdata)
    __FUNCTION__                             0x08003cd9   Data          17  ipc.o(.constdata)
    __FUNCTION__                             0x08003cea   Data          11  ipc.o(.constdata)
    __FUNCTION__                             0x08003cf5   Data          13  ipc.o(.constdata)
    __FUNCTION__                             0x08003d02   Data          13  ipc.o(.constdata)
    __FUNCTION__                             0x08003d0f   Data          13  ipc.o(.constdata)
    __FUNCTION__                             0x08003d1c   Data          16  ipc.o(.constdata)
    __FUNCTION__                             0x08003d2c   Data          11  ipc.o(.constdata)
    __FUNCTION__                             0x08003d37   Data          14  ipc.o(.constdata)
    __FUNCTION__                             0x08003d45   Data          11  ipc.o(.constdata)
    __FUNCTION__                             0x08003d50   Data          13  ipc.o(.constdata)
    __FUNCTION__                             0x08003d5d   Data          13  ipc.o(.constdata)
    __FUNCTION__                             0x08003d6a   Data          13  ipc.o(.constdata)
    __FUNCTION__                             0x08003d77   Data          11  ipc.o(.constdata)
    __FUNCTION__                             0x08003d82   Data          13  ipc.o(.constdata)
    __FUNCTION__                             0x08003d8f   Data          11  ipc.o(.constdata)
    __FUNCTION__                             0x08003d9a   Data          14  ipc.o(.constdata)
    .constdata                               0x08003da8   Section      290  kservice.o(.constdata)
    small_digits                             0x08003ea8   Data          17  kservice.o(.constdata)
    large_digits                             0x08003eb9   Data          17  kservice.o(.constdata)
    .constdata                               0x08003eca   Section       60  mem.o(.constdata)
    __FUNCTION__                             0x08003eca   Data          11  mem.o(.constdata)
    __FUNCTION__                             0x08003ed5   Data          20  mem.o(.constdata)
    __FUNCTION__                             0x08003ee9   Data          10  mem.o(.constdata)
    __FUNCTION__                             0x08003ef3   Data          11  mem.o(.constdata)
    __FUNCTION__                             0x08003efe   Data           8  mem.o(.constdata)
    .constdata                               0x08003f06   Section      128  object.o(.constdata)
    __FUNCTION__                             0x08003f06   Data          15  object.o(.constdata)
    __FUNCTION__                             0x08003f15   Data          17  object.o(.constdata)
    __FUNCTION__                             0x08003f26   Data          19  object.o(.constdata)
    __FUNCTION__                             0x08003f39   Data          17  object.o(.constdata)
    __FUNCTION__                             0x08003f4a   Data          26  object.o(.constdata)
    __FUNCTION__                             0x08003f64   Data          19  object.o(.constdata)
    __FUNCTION__                             0x08003f77   Data          15  object.o(.constdata)
    .constdata                               0x08003f86   Section       78  scheduler.o(.constdata)
    __FUNCTION__                             0x08003f86   Data          26  scheduler.o(.constdata)
    __FUNCTION__                             0x08003fa0   Data          26  scheduler.o(.constdata)
    __FUNCTION__                             0x08003fba   Data          26  scheduler.o(.constdata)
    .constdata                               0x08003fd4   Section      185  thread.o(.constdata)
    __FUNCTION__                             0x08003fd4   Data          16  thread.o(.constdata)
    __FUNCTION__                             0x08003fe4   Data          15  thread.o(.constdata)
    __FUNCTION__                             0x08003ff3   Data          18  thread.o(.constdata)
    __FUNCTION__                             0x08004005   Data          17  thread.o(.constdata)
    __FUNCTION__                             0x08004016   Data          17  thread.o(.constdata)
    __FUNCTION__                             0x08004027   Data          16  thread.o(.constdata)
    __FUNCTION__                             0x08004037   Data          18  thread.o(.constdata)
    __FUNCTION__                             0x08004049   Data          18  thread.o(.constdata)
    __FUNCTION__                             0x0800405b   Data          17  thread.o(.constdata)
    __FUNCTION__                             0x0800406c   Data          18  thread.o(.constdata)
    __FUNCTION__                             0x0800407e   Data          15  thread.o(.constdata)
    .constdata                               0x0800408d   Section       92  timer.o(.constdata)
    __FUNCTION__                             0x0800408d   Data          14  timer.o(.constdata)
    __FUNCTION__                             0x0800409b   Data          16  timer.o(.constdata)
    __FUNCTION__                             0x080040ab   Data          16  timer.o(.constdata)
    __FUNCTION__                             0x080040bb   Data          15  timer.o(.constdata)
    __FUNCTION__                             0x080040ca   Data          14  timer.o(.constdata)
    __FUNCTION__                             0x080040d8   Data          17  timer.o(.constdata)
    .conststring                             0x080040ec   Section       69  ipc.o(.conststring)
    .conststring                             0x08004134   Section      235  mem.o(.conststring)
    .conststring                             0x08004220   Section       66  thread.o(.conststring)
    .rti_fn.0                                0x08004264   Section        4  components.o(.rti_fn.0)
    __tagsym$$used                           0x08004264   Number         0  components.o(.rti_fn.0)
    .rti_fn.0.end                            0x08004268   Section        4  components.o(.rti_fn.0.end)
    __tagsym$$used                           0x08004268   Number         0  components.o(.rti_fn.0.end)
    .rti_fn.1.end                            0x0800426c   Section        4  components.o(.rti_fn.1.end)
    __tagsym$$used                           0x0800426c   Number         0  components.o(.rti_fn.1.end)
    .rti_fn.6.end                            0x08004270   Section        4  components.o(.rti_fn.6.end)
    __tagsym$$used                           0x08004270   Number         0  components.o(.rti_fn.6.end)
    .data                                    0x20000000   Section        4  clock.o(.data)
    rt_tick                                  0x20000000   Data           4  clock.o(.data)
    .data                                    0x20000004   Section        9  irq.o(.data)
    rt_interrupt_enter_hook                  0x20000004   Data           4  irq.o(.data)
    rt_interrupt_leave_hook                  0x20000008   Data           4  irq.o(.data)
    .data                                    0x20000010   Section       12  kservice.o(.data)
    __rt_errno                               0x20000010   Data           4  kservice.o(.data)
    _console_device                          0x20000014   Data           4  kservice.o(.data)
    .data                                    0x2000001c   Section       32  mem.o(.data)
    rt_malloc_hook                           0x2000001c   Data           4  mem.o(.data)
    rt_free_hook                             0x20000020   Data           4  mem.o(.data)
    heap_ptr                                 0x20000024   Data           4  mem.o(.data)
    heap_end                                 0x20000028   Data           4  mem.o(.data)
    lfree                                    0x2000002c   Data           4  mem.o(.data)
    mem_size_aligned                         0x20000030   Data           4  mem.o(.data)
    used_mem                                 0x20000034   Data           4  mem.o(.data)
    max_mem                                  0x20000038   Data           4  mem.o(.data)
    .data                                    0x2000003c   Section      164  object.o(.data)
    rt_object_container                      0x2000003c   Data         144  object.o(.data)
    rt_object_attach_hook                    0x200000cc   Data           4  object.o(.data)
    rt_object_detach_hook                    0x200000d0   Data           4  object.o(.data)
    .data                                    0x200000e0   Section       28  scheduler.o(.data)
    rt_scheduler_lock_nest                   0x200000e4   Data           2  scheduler.o(.data)
    rt_scheduler_hook                        0x200000f8   Data           4  scheduler.o(.data)
    .data                                    0x200000fc   Section       12  thread.o(.data)
    rt_thread_suspend_hook                   0x200000fc   Data           4  thread.o(.data)
    rt_thread_resume_hook                    0x20000100   Data           4  thread.o(.data)
    rt_thread_inited_hook                    0x20000104   Data           4  thread.o(.data)
    .data                                    0x20000108   Section       20  timer.o(.data)
    rt_timer_list                            0x20000108   Data           8  timer.o(.data)
    rt_timer_enter_hook                      0x20000110   Data           4  timer.o(.data)
    rt_timer_exit_hook                       0x20000114   Data           4  timer.o(.data)
    random_nr                                0x20000118   Data           4  timer.o(.data)
    .data                                    0x2000011c   Section       16  cpuport.o(.data)
    rt_exception_hook                        0x20000128   Data           4  cpuport.o(.data)
    .data                                    0x2000012c   Section        4  system_gd32e10x.o(.data)
    .data                                    0x20000130   Section        4  systick.o(.data)
    delay                                    0x20000130   Data           4  systick.o(.data)
    .bss                                     0x20000134   Section      400  idle.o(.bss)
    idle                                     0x20000134   Data         128  idle.o(.bss)
    rt_thread_stack                          0x200001b4   Data         256  idle.o(.bss)
    idle_hook_list                           0x200002b4   Data          16  idle.o(.bss)
    .bss                                     0x200002c4   Section      128  kservice.o(.bss)
    rt_log_buf                               0x200002c4   Data         128  kservice.o(.bss)
    .bss                                     0x20000344   Section       32  mem.o(.bss)
    heap_sem                                 0x20000344   Data          32  mem.o(.bss)
    .bss                                     0x20000364   Section      256  scheduler.o(.bss)
    .bss                                     0x20000464   Section       96  libspace.o(.bss)
    HEAP                                     0x200004c8   Section     1024  startup_gd32e10x.o(HEAP)
    Heap_Mem                                 0x200004c8   Data        1024  startup_gd32e10x.o(HEAP)
    STACK                                    0x200008c8   Section     1024  startup_gd32e10x.o(STACK)
    Stack_Mem                                0x200008c8   Data        1024  startup_gd32e10x.o(STACK)
    __initial_sp                             0x20000cc8   Data           0  startup_gd32e10x.o(STACK)

    Global Symbols

    Symbol Name                              Value     Ov Type        Size  Object(Section)

    BuildAttributes$$THM_ISAv4$E$P$D$K$B$S$7EM$PE$A:L22UL41UL21$X:L11$S22US41US21$IEEE1$IW$USESV6$~STKCKD$USESV7$~SHL$OSPACE$ROPI$EBA8$UX$STANDARDLIB$REQ8$PRES8$EABIv2 0x00000000   Number         0  anon$$obj.o ABSOLUTE
    __ARM_use_no_argv                        0x00000000   Number         0  main.o ABSOLUTE
    __ARM_exceptions_init                     - Undefined Weak Reference
    __alloca_initialize                       - Undefined Weak Reference
    __arm_preinit_                            - Undefined Weak Reference
    __cpp_initialize__aeabi_                  - Undefined Weak Reference
    __cxa_finalize                            - Undefined Weak Reference
    __rt_locale                               - Undefined Weak Reference
    __sigvec_lookup                           - Undefined Weak Reference
    _atexit_init                              - Undefined Weak Reference
    _call_atexit_fns                          - Undefined Weak Reference
    _clock_init                               - Undefined Weak Reference
    _fp_trap_init                             - Undefined Weak Reference
    _fp_trap_shutdown                         - Undefined Weak Reference
    _get_lc_collate                           - Undefined Weak Reference
    _get_lc_ctype                             - Undefined Weak Reference
    _get_lc_monetary                          - Undefined Weak Reference
    _get_lc_numeric                           - Undefined Weak Reference
    _get_lc_time                              - Undefined Weak Reference
    _getenv_init                              - Undefined Weak Reference
    _handle_redirection                       - Undefined Weak Reference
    _init_alloc                               - Undefined Weak Reference
    _init_user_alloc                          - Undefined Weak Reference
    _initio                                   - Undefined Weak Reference
    _rand_init                                - Undefined Weak Reference
    _signal_finish                            - Undefined Weak Reference
    _signal_init                              - Undefined Weak Reference
    _terminate_alloc                          - Undefined Weak Reference
    _terminate_user_alloc                     - Undefined Weak Reference
    _terminateio                              - Undefined Weak Reference
    __Vectors_Size                           0x00000150   Number         0  startup_gd32e10x.o ABSOLUTE
    __Vectors                                0x08000000   Data           4  startup_gd32e10x.o(RESET)
    __Vectors_End                            0x08000150   Data           0  startup_gd32e10x.o(RESET)
    __main                                   0x08000151   Thumb Code     8  __main.o(!!!main)
    __scatterload                            0x08000159   Thumb Code     0  __scatter.o(!!!scatter)
    __scatterload_rt2                        0x08000159   Thumb Code    44  __scatter.o(!!!scatter)
    __scatterload_rt2_thumb_only             0x08000159   Thumb Code     0  __scatter.o(!!!scatter)
    __scatterload_null                       0x08000167   Thumb Code     0  __scatter.o(!!!scatter)
    __decompress                             0x0800018d   Thumb Code    90  __dczerorl2.o(!!dczerorl2)
    __decompress1                            0x0800018d   Thumb Code     0  __dczerorl2.o(!!dczerorl2)
    __scatterload_zeroinit                   0x080001e9   Thumb Code    28  __scatter_zi.o(!!handler_zi)
    __rt_lib_init                            0x08000205   Thumb Code     0  libinit.o(.ARM.Collect$$libinit$$00000000)
    __rt_lib_init_alloca_1                   0x08000207   Thumb Code     0  libinit2.o(.ARM.Collect$$libinit$$0000002E)
    __rt_lib_init_argv_1                     0x08000207   Thumb Code     0  libinit2.o(.ARM.Collect$$libinit$$0000002C)
    __rt_lib_init_atexit_1                   0x08000207   Thumb Code     0  libinit2.o(.ARM.Collect$$libinit$$0000001B)
    __rt_lib_init_clock_1                    0x08000207   Thumb Code     0  libinit2.o(.ARM.Collect$$libinit$$00000021)
    __rt_lib_init_cpp_1                      0x08000207   Thumb Code     0  libinit2.o(.ARM.Collect$$libinit$$00000032)
    __rt_lib_init_exceptions_1               0x08000207   Thumb Code     0  libinit2.o(.ARM.Collect$$libinit$$00000030)
    __rt_lib_init_fp_1                       0x08000207   Thumb Code     0  libinit2.o(.ARM.Collect$$libinit$$00000002)
    __rt_lib_init_fp_trap_1                  0x08000207   Thumb Code     0  libinit2.o(.ARM.Collect$$libinit$$0000001F)
    __rt_lib_init_getenv_1                   0x08000207   Thumb Code     0  libinit2.o(.ARM.Collect$$libinit$$00000023)
    __rt_lib_init_heap_1                     0x08000207   Thumb Code     0  libinit2.o(.ARM.Collect$$libinit$$0000000A)
    __rt_lib_init_lc_collate_1               0x08000207   Thumb Code     0  libinit2.o(.ARM.Collect$$libinit$$00000011)
    __rt_lib_init_lc_ctype_1                 0x08000207   Thumb Code     0  libinit2.o(.ARM.Collect$$libinit$$00000013)
    __rt_lib_init_lc_monetary_1              0x08000207   Thumb Code     0  libinit2.o(.ARM.Collect$$libinit$$00000015)
    __rt_lib_init_lc_numeric_1               0x08000207   Thumb Code     0  libinit2.o(.ARM.Collect$$libinit$$00000017)
    __rt_lib_init_lc_time_1                  0x08000207   Thumb Code     0  libinit2.o(.ARM.Collect$$libinit$$00000019)
    __rt_lib_init_preinit_1                  0x08000207   Thumb Code     0  libinit2.o(.ARM.Collect$$libinit$$00000004)
    __rt_lib_init_rand_1                     0x08000207   Thumb Code     0  libinit2.o(.ARM.Collect$$libinit$$0000000E)
    __rt_lib_init_return                     0x08000207   Thumb Code     0  libinit2.o(.ARM.Collect$$libinit$$00000033)
    __rt_lib_init_signal_1                   0x08000207   Thumb Code     0  libinit2.o(.ARM.Collect$$libinit$$0000001D)
    __rt_lib_init_stdio_1                    0x08000207   Thumb Code     0  libinit2.o(.ARM.Collect$$libinit$$00000025)
    __rt_lib_init_user_alloc_1               0x08000207   Thumb Code     0  libinit2.o(.ARM.Collect$$libinit$$0000000C)
    __rt_lib_shutdown                        0x08000209   Thumb Code     0  libshutdown.o(.ARM.Collect$$libshutdown$$00000000)
    __rt_lib_shutdown_cpp_1                  0x0800020b   Thumb Code     0  libshutdown2.o(.ARM.Collect$$libshutdown$$00000002)
    __rt_lib_shutdown_fp_trap_1              0x0800020b   Thumb Code     0  libshutdown2.o(.ARM.Collect$$libshutdown$$00000007)
    __rt_lib_shutdown_heap_1                 0x0800020b   Thumb Code     0  libshutdown2.o(.ARM.Collect$$libshutdown$$0000000F)
    __rt_lib_shutdown_return                 0x0800020b   Thumb Code     0  libshutdown2.o(.ARM.Collect$$libshutdown$$00000010)
    __rt_lib_shutdown_signal_1               0x0800020b   Thumb Code     0  libshutdown2.o(.ARM.Collect$$libshutdown$$0000000A)
    __rt_lib_shutdown_stdio_1                0x0800020b   Thumb Code     0  libshutdown2.o(.ARM.Collect$$libshutdown$$00000004)
    __rt_lib_shutdown_user_alloc_1           0x0800020b   Thumb Code     0  libshutdown2.o(.ARM.Collect$$libshutdown$$0000000C)
    __rt_entry                               0x0800020d   Thumb Code     0  __rtentry.o(.ARM.Collect$$rtentry$$00000000)
    __rt_entry_presh_1                       0x0800020d   Thumb Code     0  __rtentry2.o(.ARM.Collect$$rtentry$$00000002)
    __rt_entry_sh                            0x0800020d   Thumb Code     0  __rtentry4.o(.ARM.Collect$$rtentry$$00000004)
    __rt_entry_li                            0x08000213   Thumb Code     0  __rtentry2.o(.ARM.Collect$$rtentry$$0000000A)
    __rt_entry_postsh_1                      0x08000213   Thumb Code     0  __rtentry2.o(.ARM.Collect$$rtentry$$00000009)
    __rt_entry_main                          0x08000217   Thumb Code     0  __rtentry2.o(.ARM.Collect$$rtentry$$0000000D)
    __rt_entry_postli_1                      0x08000217   Thumb Code     0  __rtentry2.o(.ARM.Collect$$rtentry$$0000000C)
    __rt_exit                                0x0800021f   Thumb Code     0  rtexit.o(.ARM.Collect$$rtexit$$00000000)
    __rt_exit_ls                             0x08000221   Thumb Code     0  rtexit2.o(.ARM.Collect$$rtexit$$00000003)
    __rt_exit_prels_1                        0x08000221   Thumb Code     0  rtexit2.o(.ARM.Collect$$rtexit$$00000002)
    __rt_exit_exit                           0x08000225   Thumb Code     0  rtexit2.o(.ARM.Collect$$rtexit$$00000004)
    rt_hw_interrupt_disable                  0x0800022d   Thumb Code     8  context_rvds.o(.text)
    rt_hw_interrupt_enable                   0x08000235   Thumb Code     6  context_rvds.o(.text)
    rt_hw_context_switch                     0x0800023b   Thumb Code    32  context_rvds.o(.text)
    rt_hw_context_switch_interrupt           0x0800023b   Thumb Code     0  context_rvds.o(.text)
    PendSV_Handler                           0x0800025b   Thumb Code    60  context_rvds.o(.text)
    rt_hw_context_switch_to                  0x08000297   Thumb Code    58  context_rvds.o(.text)
    rt_hw_interrupt_thread_switch            0x080002d1   Thumb Code     2  context_rvds.o(.text)
    HardFault_Handler                        0x080002d3   Thumb Code    52  context_rvds.o(.text)
    Reset_Handler                            0x08000321   Thumb Code     8  startup_gd32e10x.o(.text)
    NMI_Handler                              0x08000329   Thumb Code     2  startup_gd32e10x.o(.text)
    MemManage_Handler                        0x0800032d   Thumb Code     2  startup_gd32e10x.o(.text)
    BusFault_Handler                         0x0800032f   Thumb Code     2  startup_gd32e10x.o(.text)
    UsageFault_Handler                       0x08000331   Thumb Code     2  startup_gd32e10x.o(.text)
    SVC_Handler                              0x08000333   Thumb Code     2  startup_gd32e10x.o(.text)
    DebugMon_Handler                         0x08000335   Thumb Code     2  startup_gd32e10x.o(.text)
    ADC0_1_IRQHandler                        0x0800033b   Thumb Code     0  startup_gd32e10x.o(.text)
    CAN0_EWMC_IRQHandler                     0x0800033b   Thumb Code     0  startup_gd32e10x.o(.text)
    CAN0_RX0_IRQHandler                      0x0800033b   Thumb Code     0  startup_gd32e10x.o(.text)
    CAN0_RX1_IRQHandler                      0x0800033b   Thumb Code     0  startup_gd32e10x.o(.text)
    CAN0_TX_IRQHandler                       0x0800033b   Thumb Code     0  startup_gd32e10x.o(.text)
    CAN1_EWMC_IRQHandler                     0x0800033b   Thumb Code     0  startup_gd32e10x.o(.text)
    CAN1_RX0_IRQHandler                      0x0800033b   Thumb Code     0  startup_gd32e10x.o(.text)
    CAN1_RX1_IRQHandler                      0x0800033b   Thumb Code     0  startup_gd32e10x.o(.text)
    CAN1_TX_IRQHandler                       0x0800033b   Thumb Code     0  startup_gd32e10x.o(.text)
    DMA0_Channel0_IRQHandler                 0x0800033b   Thumb Code     0  startup_gd32e10x.o(.text)
    DMA0_Channel1_IRQHandler                 0x0800033b   Thumb Code     0  startup_gd32e10x.o(.text)
    DMA0_Channel2_IRQHandler                 0x0800033b   Thumb Code     0  startup_gd32e10x.o(.text)
    DMA0_Channel3_IRQHandler                 0x0800033b   Thumb Code     0  startup_gd32e10x.o(.text)
    DMA0_Channel4_IRQHandler                 0x0800033b   Thumb Code     0  startup_gd32e10x.o(.text)
    DMA0_Channel5_IRQHandler                 0x0800033b   Thumb Code     0  startup_gd32e10x.o(.text)
    DMA0_Channel6_IRQHandler                 0x0800033b   Thumb Code     0  startup_gd32e10x.o(.text)
    DMA1_Channel0_IRQHandler                 0x0800033b   Thumb Code     0  startup_gd32e10x.o(.text)
    DMA1_Channel1_IRQHandler                 0x0800033b   Thumb Code     0  startup_gd32e10x.o(.text)
    DMA1_Channel2_IRQHandler                 0x0800033b   Thumb Code     0  startup_gd32e10x.o(.text)
    DMA1_Channel3_IRQHandler                 0x0800033b   Thumb Code     0  startup_gd32e10x.o(.text)
    DMA1_Channel4_IRQHandler                 0x0800033b   Thumb Code     0  startup_gd32e10x.o(.text)
    EXMC_IRQHandler                          0x0800033b   Thumb Code     0  startup_gd32e10x.o(.text)
    EXTI0_IRQHandler                         0x0800033b   Thumb Code     0  startup_gd32e10x.o(.text)
    EXTI10_15_IRQHandler                     0x0800033b   Thumb Code     0  startup_gd32e10x.o(.text)
    EXTI1_IRQHandler                         0x0800033b   Thumb Code     0  startup_gd32e10x.o(.text)
    EXTI2_IRQHandler                         0x0800033b   Thumb Code     0  startup_gd32e10x.o(.text)
    EXTI3_IRQHandler                         0x0800033b   Thumb Code     0  startup_gd32e10x.o(.text)
    EXTI4_IRQHandler                         0x0800033b   Thumb Code     0  startup_gd32e10x.o(.text)
    EXTI5_9_IRQHandler                       0x0800033b   Thumb Code     0  startup_gd32e10x.o(.text)
    FMC_IRQHandler                           0x0800033b   Thumb Code     0  startup_gd32e10x.o(.text)
    I2C0_ER_IRQHandler                       0x0800033b   Thumb Code     0  startup_gd32e10x.o(.text)
    I2C0_EV_IRQHandler                       0x0800033b   Thumb Code     0  startup_gd32e10x.o(.text)
    I2C1_ER_IRQHandler                       0x0800033b   Thumb Code     0  startup_gd32e10x.o(.text)
    I2C1_EV_IRQHandler                       0x0800033b   Thumb Code     0  startup_gd32e10x.o(.text)
    LVD_IRQHandler                           0x0800033b   Thumb Code     0  startup_gd32e10x.o(.text)
    RCU_CTC_IRQHandler                       0x0800033b   Thumb Code     0  startup_gd32e10x.o(.text)
    RTC_Alarm_IRQHandler                     0x0800033b   Thumb Code     0  startup_gd32e10x.o(.text)
    RTC_IRQHandler                           0x0800033b   Thumb Code     0  startup_gd32e10x.o(.text)
    SPI0_IRQHandler                          0x0800033b   Thumb Code     0  startup_gd32e10x.o(.text)
    SPI1_IRQHandler                          0x0800033b   Thumb Code     0  startup_gd32e10x.o(.text)
    SPI2_IRQHandler                          0x0800033b   Thumb Code     0  startup_gd32e10x.o(.text)
    TAMPER_IRQHandler                        0x0800033b   Thumb Code     0  startup_gd32e10x.o(.text)
    TIMER0_BRK_TIMER8_IRQHandler             0x0800033b   Thumb Code     0  startup_gd32e10x.o(.text)
    TIMER0_Channel_IRQHandler                0x0800033b   Thumb Code     0  startup_gd32e10x.o(.text)
    TIMER0_TRG_CMT_TIMER10_IRQHandler        0x0800033b   Thumb Code     0  startup_gd32e10x.o(.text)
    TIMER0_UP_TIMER9_IRQHandler              0x0800033b   Thumb Code     0  startup_gd32e10x.o(.text)
    TIMER1_IRQHandler                        0x0800033b   Thumb Code     0  startup_gd32e10x.o(.text)
    TIMER2_IRQHandler                        0x0800033b   Thumb Code     0  startup_gd32e10x.o(.text)
    TIMER3_IRQHandler                        0x0800033b   Thumb Code     0  startup_gd32e10x.o(.text)
    TIMER4_IRQHandler                        0x0800033b   Thumb Code     0  startup_gd32e10x.o(.text)
    TIMER5_IRQHandler                        0x0800033b   Thumb Code     0  startup_gd32e10x.o(.text)
    TIMER6_IRQHandler                        0x0800033b   Thumb Code     0  startup_gd32e10x.o(.text)
    TIMER7_BRK_TIMER11_IRQHandler            0x0800033b   Thumb Code     0  startup_gd32e10x.o(.text)
    TIMER7_Channel_IRQHandler                0x0800033b   Thumb Code     0  startup_gd32e10x.o(.text)
    TIMER7_TRG_CMT_TIMER13_IRQHandler        0x0800033b   Thumb Code     0  startup_gd32e10x.o(.text)
    TIMER7_UP_TIMER12_IRQHandler             0x0800033b   Thumb Code     0  startup_gd32e10x.o(.text)
    UART3_IRQHandler                         0x0800033b   Thumb Code     0  startup_gd32e10x.o(.text)
    UART4_IRQHandler                         0x0800033b   Thumb Code     0  startup_gd32e10x.o(.text)
    USART0_IRQHandler                        0x0800033b   Thumb Code     0  startup_gd32e10x.o(.text)
    USART1_IRQHandler                        0x0800033b   Thumb Code     0  startup_gd32e10x.o(.text)
    USART2_IRQHandler                        0x0800033b   Thumb Code     0  startup_gd32e10x.o(.text)
    USBFS_IRQHandler                         0x0800033b   Thumb Code     0  startup_gd32e10x.o(.text)
    USBFS_WKUP_IRQHandler                    0x0800033b   Thumb Code     0  startup_gd32e10x.o(.text)
    WWDGT_IRQHandler                         0x0800033b   Thumb Code     0  startup_gd32e10x.o(.text)
    __user_initial_stackheap                 0x0800033d   Thumb Code    10  startup_gd32e10x.o(.text)
    __use_two_region_memory                  0x08000361   Thumb Code     2  heapauxi.o(.text)
    __rt_heap_escrow$2region                 0x08000363   Thumb Code     2  heapauxi.o(.text)
    __rt_heap_expand$2region                 0x08000365   Thumb Code     2  heapauxi.o(.text)
    __user_setup_stackheap                   0x08000367   Thumb Code    74  sys_stackheap_outer.o(.text)
    exit                                     0x080003b1   Thumb Code    18  exit.o(.text)
    __user_libspace                          0x080003c5   Thumb Code     8  libspace.o(.text)
    __user_perproc_libspace                  0x080003c5   Thumb Code     0  libspace.o(.text)
    __user_perthread_libspace                0x080003c5   Thumb Code     0  libspace.o(.text)
    _sys_exit                                0x080003cd   Thumb Code     8  sys_exit.o(.text)
    __I$use$semihosting                      0x080003d9   Thumb Code     0  use_no_semi.o(.text)
    __use_no_semihosting_swi                 0x080003d9   Thumb Code     2  use_no_semi.o(.text)
    __semihosting_library_function           0x080003db   Thumb Code     0  indicate_semi.o(.text)
    main                                     0x080003db   Thumb Code    14  components.o(i.$Sub$$main)
    SysTick_Handler                          0x08000411   Thumb Code    20  drv_common.o(i.SysTick_Handler)
    SystemInit                               0x08000425   Thumb Code    64  system_gd32e10x.o(i.SystemInit)
    __rt_ffs                                 0x0800046d   Thumb Code    70  kservice.o(i.__rt_ffs)
    delay_decrement                          0x080006f9   Thumb Code    18  systick.o(i.delay_decrement)
    gpio_init                                0x08000711   Thumb Code   188  gd32e10x_gpio.o(i.gpio_init)
    gpio_pin_remap_config                    0x080007cd   Thumb Code   138  gd32e10x_gpio.o(i.gpio_pin_remap_config)
    $Super$$main                             0x0800085d   Thumb Code    18  main.o(i.main)
    main_thread_entry                        0x08000889   Thumb Code    14  components.o(i.main_thread_entry)
    nvic_irq_enable                          0x08000899   Thumb Code   162  gd32e10x_misc.o(i.nvic_irq_enable)
    nvic_priority_group_set                  0x08000945   Thumb Code    10  gd32e10x_misc.o(i.nvic_priority_group_set)
    nvic_vector_table_set                    0x08000959   Thumb Code    12  gd32e10x_misc.o(i.nvic_vector_table_set)
    rcu_clock_freq_get                       0x08000c11   Thumb Code   352  gd32e10x_rcu.o(i.rcu_clock_freq_get)
    rcu_periph_clock_enable                  0x08000d95   Thumb Code    28  gd32e10x_rcu.o(i.rcu_periph_clock_enable)
    rcu_periph_reset_disable                 0x08000db5   Thumb Code    28  gd32e10x_rcu.o(i.rcu_periph_reset_disable)
    rcu_periph_reset_enable                  0x08000dd5   Thumb Code    28  gd32e10x_rcu.o(i.rcu_periph_reset_enable)
    rt_application_init                      0x08000df5   Thumb Code    46  components.o(i.rt_application_init)
    rt_assert_handler                        0x08000e45   Thumb Code    56  kservice.o(i.rt_assert_handler)
    rt_components_board_init                 0x08000eb9   Thumb Code    20  components.o(i.rt_components_board_init)
    rt_components_init                       0x08000ed5   Thumb Code    20  components.o(i.rt_components_init)
    rt_console_set_device                    0x08000ef1   Thumb Code    48  kservice.o(i.rt_console_set_device)
    rt_device_close                          0x08000f25   Thumb Code    92  device.o(i.rt_device_close)
    rt_device_find                           0x08000fd1   Thumb Code    94  device.o(i.rt_device_find)
    rt_device_open                           0x0800104d   Thumb Code   170  device.o(i.rt_device_open)
    rt_device_write                          0x08001195   Thumb Code    98  device.o(i.rt_device_write)
    rt_enter_critical                        0x08001249   Thumb Code    28  scheduler.o(i.rt_enter_critical)
    rt_exit_critical                         0x08001269   Thumb Code    54  scheduler.o(i.rt_exit_critical)
    rt_free                                  0x080012a5   Thumb Code   278  mem.o(i.rt_free)
    rt_hw_board_init                         0x080014ad   Thumb Code   172  drv_common.o(i.rt_hw_board_init)
    rt_hw_console_output                     0x08001571   Thumb Code    90  drv_common.o(i.rt_hw_console_output)
    rt_hw_hard_fault_exception               0x080015d1   Thumb Code   212  cpuport.o(i.rt_hw_hard_fault_exception)
    rt_hw_stack_init                         0x080017f5   Thumb Code    70  cpuport.o(i.rt_hw_stack_init)
    rt_hw_systick_init                       0x08001841   Thumb Code    22  drv_common.o(i.rt_hw_systick_init)
    rt_interrupt_enter                       0x08001859   Thumb Code    46  irq.o(i.rt_interrupt_enter)
    rt_interrupt_get_nest                    0x08001891   Thumb Code    22  irq.o(i.rt_interrupt_get_nest)
    rt_interrupt_leave                       0x080018ad   Thumb Code    46  irq.o(i.rt_interrupt_leave)
    rt_kprintf                               0x08001979   Thumb Code    96  kservice.o(i.rt_kprintf)
    rt_malloc                                0x08001a71   Thumb Code   522  mem.o(i.rt_malloc)
    rt_memset                                0x08001d2d   Thumb Code    72  kservice.o(i.rt_memset)
    rt_object_allocate                       0x08001d75   Thumb Code   158  object.o(i.rt_object_allocate)
    rt_object_delete                         0x08001e61   Thumb Code    88  object.o(i.rt_object_delete)
    rt_object_detach                         0x08001f01   Thumb Code    62  object.o(i.rt_object_detach)
    rt_object_get_information                0x08001f5d   Thumb Code    36  object.o(i.rt_object_get_information)
    rt_object_get_type                       0x08001f85   Thumb Code    26  object.o(i.rt_object_get_type)
    rt_object_init                           0x08001fb9   Thumb Code    90  object.o(i.rt_object_init)
    rt_object_is_systemobject                0x08002035   Thumb Code    34  object.o(i.rt_object_is_systemobject)
    rt_schedule                              0x08002071   Thumb Code   242  scheduler.o(i.rt_schedule)
    rt_schedule_insert_thread                0x0800217d   Thumb Code   118  scheduler.o(i.rt_schedule_insert_thread)
    rt_schedule_remove_thread                0x08002219   Thumb Code    94  scheduler.o(i.rt_schedule_remove_thread)
    rt_sem_init                              0x08002299   Thumb Code    50  ipc.o(i.rt_sem_init)
    rt_sem_release                           0x080022e1   Thumb Code   116  ipc.o(i.rt_sem_release)
    rt_sem_take                              0x08002371   Thumb Code   288  ipc.o(i.rt_sem_take)
    rt_set_errno                             0x08002515   Thumb Code    36  kservice.o(i.rt_set_errno)
    rt_show_version                          0x0800253d   Thumb Code    38  kservice.o(i.rt_show_version)
    rt_sprintf                               0x080025ed   Thumb Code    34  kservice.o(i.rt_sprintf)
    rt_strlen                                0x0800260f   Thumb Code    18  kservice.o(i.rt_strlen)
    rt_strncmp                               0x08002621   Thumb Code    40  kservice.o(i.rt_strncmp)
    rt_strncpy                               0x08002649   Thumb Code    52  kservice.o(i.rt_strncpy)
    rt_system_heap_init                      0x0800267d   Thumb Code   204  mem.o(i.rt_system_heap_init)
    rt_system_scheduler_init                 0x080027d1   Thumb Code    46  scheduler.o(i.rt_system_scheduler_init)
    rt_system_scheduler_start                0x08002811   Thumb Code    36  scheduler.o(i.rt_system_scheduler_start)
    rt_system_timer_init                     0x08002839   Thumb Code    24  timer.o(i.rt_system_timer_init)
    rt_system_timer_thread_init              0x08002855   Thumb Code     2  timer.o(i.rt_system_timer_thread_init)
    rt_thread_create                         0x08002857   Thumb Code    80  thread.o(i.rt_thread_create)
    rt_thread_exit                           0x080028a9   Thumb Code    78  thread.o(i.rt_thread_exit)
    rt_thread_idle_excute                    0x08002925   Thumb Code   174  idle.o(i.rt_thread_idle_excute)
    rt_thread_idle_init                      0x08002a09   Thumb Code    74  idle.o(i.rt_thread_idle_init)
    rt_thread_init                           0x08002a69   Thumb Code    74  thread.o(i.rt_thread_init)
    rt_thread_mdelay                         0x08002ae5   Thumb Code    20  thread.o(i.rt_thread_mdelay)
    rt_thread_resume                         0x08002af9   Thumb Code   122  thread.o(i.rt_thread_resume)
    rt_thread_self                           0x08002b95   Thumb Code     6  thread.o(i.rt_thread_self)
    rt_thread_sleep                          0x08002ba1   Thumb Code   100  thread.o(i.rt_thread_sleep)
    rt_thread_startup                        0x08002c21   Thumb Code   110  thread.o(i.rt_thread_startup)
    rt_thread_suspend                        0x08002ce5   Thumb Code   158  thread.o(i.rt_thread_suspend)
    rt_thread_timeout                        0x08002dc1   Thumb Code    92  thread.o(i.rt_thread_timeout)
    rt_thread_yield                          0x08002e75   Thumb Code    10  thread.o(i.rt_thread_yield)
    rt_tick_from_millisecond                 0x08002e7f   Thumb Code    32  clock.o(i.rt_tick_from_millisecond)
    rt_tick_get                              0x08002ea1   Thumb Code     6  clock.o(i.rt_tick_get)
    rt_tick_increase                         0x08002ead   Thumb Code    42  clock.o(i.rt_tick_increase)
    rt_timer_check                           0x08002edd   Thumb Code   166  timer.o(i.rt_timer_check)
    rt_timer_control                         0x08002f91   Thumb Code    98  timer.o(i.rt_timer_control)
    rt_timer_detach                          0x08003049   Thumb Code    82  timer.o(i.rt_timer_detach)
    rt_timer_init                            0x0800311d   Thumb Code    58  timer.o(i.rt_timer_init)
    rt_timer_start                           0x08003171   Thumb Code   314  timer.o(i.rt_timer_start)
    rt_timer_stop                            0x08003331   Thumb Code   102  timer.o(i.rt_timer_stop)
    rt_vsnprintf                             0x080033f1   Thumb Code   800  kservice.o(i.rt_vsnprintf)
    rt_vsprintf                              0x08003719   Thumb Code    22  kservice.o(i.rt_vsprintf)
    rtthread_startup                         0x0800373f   Thumb Code    42  components.o(i.rtthread_startup)
    systick_config                           0x08003899   Thumb Code    72  systick.o(i.systick_config)
    usart_baudrate_set                       0x080038e5   Thumb Code   136  gd32e10x_usart.o(i.usart_baudrate_set)
    usart_data_transmit                      0x08003975   Thumb Code     8  gd32e10x_usart.o(i.usart_data_transmit)
    usart_deinit                             0x0800397d   Thumb Code   136  gd32e10x_usart.o(i.usart_deinit)
    usart_enable                             0x08003a0d   Thumb Code    10  gd32e10x_usart.o(i.usart_enable)
    usart_flag_clear                         0x08003a17   Thumb Code    26  gd32e10x_usart.o(i.usart_flag_clear)
    usart_flag_get                           0x08003a31   Thumb Code    30  gd32e10x_usart.o(i.usart_flag_get)
    usart_hardware_flow_cts_config           0x08003a4f   Thumb Code    16  gd32e10x_usart.o(i.usart_hardware_flow_cts_config)
    usart_hardware_flow_rts_config           0x08003a5f   Thumb Code    16  gd32e10x_usart.o(i.usart_hardware_flow_rts_config)
    usart_parity_config                      0x08003a6f   Thumb Code    16  gd32e10x_usart.o(i.usart_parity_config)
    usart_receive_config                     0x08003a7f   Thumb Code    16  gd32e10x_usart.o(i.usart_receive_config)
    usart_stop_bit_set                       0x08003a8f   Thumb Code    16  gd32e10x_usart.o(i.usart_stop_bit_set)
    usart_transmit_config                    0x08003a9f   Thumb Code    16  gd32e10x_usart.o(i.usart_transmit_config)
    usart_word_length_set                    0x08003aaf   Thumb Code    16  gd32e10x_usart.o(i.usart_word_length_set)
    __lowest_bit_bitmap                      0x08003da8   Data         256  kservice.o(.constdata)
    __rt_init_rti_start                      0x08004264   Data           4  components.o(.rti_fn.0)
    __rt_init_rti_board_start                0x08004268   Data           4  components.o(.rti_fn.0.end)
    __rt_init_rti_board_end                  0x0800426c   Data           4  components.o(.rti_fn.1.end)
    __rt_init_rti_end                        0x08004270   Data           4  components.o(.rti_fn.6.end)
    Region$$Table$$Base                      0x08004274   Number         0  anon$$obj.o(Region$$Table)
    Region$$Table$$Limit                     0x08004294   Number         0  anon$$obj.o(Region$$Table)
    rt_interrupt_nest                        0x2000000c   Data           1  irq.o(.data)
    rt_assert_hook                           0x20000018   Data           4  kservice.o(.data)
    rt_object_trytake_hook                   0x200000d4   Data           4  object.o(.data)
    rt_object_take_hook                      0x200000d8   Data           4  object.o(.data)
    rt_object_put_hook                       0x200000dc   Data           4  object.o(.data)
    rt_thread_ready_priority_group           0x200000e0   Data           4  scheduler.o(.data)
    rt_current_thread                        0x200000e8   Data           4  scheduler.o(.data)
    rt_current_priority                      0x200000ec   Data           1  scheduler.o(.data)
    rt_thread_defunct                        0x200000f0   Data           8  scheduler.o(.data)
    rt_interrupt_from_thread                 0x2000011c   Data           4  cpuport.o(.data)
    rt_interrupt_to_thread                   0x20000120   Data           4  cpuport.o(.data)
    rt_thread_switch_interrupt_flag          0x20000124   Data           4  cpuport.o(.data)
    SystemCoreClock                          0x2000012c   Data           4  system_gd32e10x.o(.data)
    rt_thread_priority_table                 0x20000364   Data         256  scheduler.o(.bss)
    __libspace_start                         0x20000464   Data          96  libspace.o(.bss)
    __temporary_stack_top$libspace           0x200004c4   Data           0  libspace.o(.bss)
    Image$$RW_IRAM1$$ZI$$Limit               0x20000cc8   Number         0  anon$$obj.o ABSOLUTE



==============================================================================

Memory Map of the image

  Image Entry point : 0x08000151

  Load Region LR_IROM1 (Base: 0x08000000, Size: 0x000043c8, Max: 0x00020000, ABSOLUTE, COMPRESSED[0x000042f0])

    Execution Region ER_IROM1 (Exec base: 0x08000000, Load base: 0x08000000, Size: 0x00004294, Max: 0x00020000, ABSOLUTE)

    Exec Addr    Load Addr    Size         Type   Attr      Idx    E Section Name        Object

    0x08000000   0x08000000   0x00000150   Data   RO         5237    RESET               startup_gd32e10x.o
    0x08000150   0x08000150   0x00000008   Code   RO         5375  * !!!main             c_w.l(__main.o)
    0x08000158   0x08000158   0x00000034   Code   RO         5534    !!!scatter          c_w.l(__scatter.o)
    0x0800018c   0x0800018c   0x0000005a   Code   RO         5532    !!dczerorl2         c_w.l(__dczerorl2.o)
    0x080001e6   0x080001e6   0x00000002   PAD
    0x080001e8   0x080001e8   0x0000001c   Code   RO         5536    !!handler_zi        c_w.l(__scatter_zi.o)
    0x08000204   0x08000204   0x00000002   Code   RO         5402    .ARM.Collect$$libinit$$00000000  c_w.l(libinit.o)
    0x08000206   0x08000206   0x00000000   Code   RO         5409    .ARM.Collect$$libinit$$00000002  c_w.l(libinit2.o)
    0x08000206   0x08000206   0x00000000   Code   RO         5411    .ARM.Collect$$libinit$$00000004  c_w.l(libinit2.o)
    0x08000206   0x08000206   0x00000000   Code   RO         5414    .ARM.Collect$$libinit$$0000000A  c_w.l(libinit2.o)
    0x08000206   0x08000206   0x00000000   Code   RO         5416    .ARM.Collect$$libinit$$0000000C  c_w.l(libinit2.o)
    0x08000206   0x08000206   0x00000000   Code   RO         5418    .ARM.Collect$$libinit$$0000000E  c_w.l(libinit2.o)
    0x08000206   0x08000206   0x00000000   Code   RO         5421    .ARM.Collect$$libinit$$00000011  c_w.l(libinit2.o)
    0x08000206   0x08000206   0x00000000   Code   RO         5423    .ARM.Collect$$libinit$$00000013  c_w.l(libinit2.o)
    0x08000206   0x08000206   0x00000000   Code   RO         5425    .ARM.Collect$$libinit$$00000015  c_w.l(libinit2.o)
    0x08000206   0x08000206   0x00000000   Code   RO         5427    .ARM.Collect$$libinit$$00000017  c_w.l(libinit2.o)
    0x08000206   0x08000206   0x00000000   Code   RO         5429    .ARM.Collect$$libinit$$00000019  c_w.l(libinit2.o)
    0x08000206   0x08000206   0x00000000   Code   RO         5431    .ARM.Collect$$libinit$$0000001B  c_w.l(libinit2.o)
    0x08000206   0x08000206   0x00000000   Code   RO         5433    .ARM.Collect$$libinit$$0000001D  c_w.l(libinit2.o)
    0x08000206   0x08000206   0x00000000   Code   RO         5435    .ARM.Collect$$libinit$$0000001F  c_w.l(libinit2.o)
    0x08000206   0x08000206   0x00000000   Code   RO         5437    .ARM.Collect$$libinit$$00000021  c_w.l(libinit2.o)
    0x08000206   0x08000206   0x00000000   Code   RO         5439    .ARM.Collect$$libinit$$00000023  c_w.l(libinit2.o)
    0x08000206   0x08000206   0x00000000   Code   RO         5441    .ARM.Collect$$libinit$$00000025  c_w.l(libinit2.o)
    0x08000206   0x08000206   0x00000000   Code   RO         5445    .ARM.Collect$$libinit$$0000002C  c_w.l(libinit2.o)
    0x08000206   0x08000206   0x00000000   Code   RO         5447    .ARM.Collect$$libinit$$0000002E  c_w.l(libinit2.o)
    0x08000206   0x08000206   0x00000000   Code   RO         5449    .ARM.Collect$$libinit$$00000030  c_w.l(libinit2.o)
    0x08000206   0x08000206   0x00000000   Code   RO         5451    .ARM.Collect$$libinit$$00000032  c_w.l(libinit2.o)
    0x08000206   0x08000206   0x00000002   Code   RO         5452    .ARM.Collect$$libinit$$00000033  c_w.l(libinit2.o)
    0x08000208   0x08000208   0x00000002   Code   RO         5472    .ARM.Collect$$libshutdown$$00000000  c_w.l(libshutdown.o)
    0x0800020a   0x0800020a   0x00000000   Code   RO         5485    .ARM.Collect$$libshutdown$$00000002  c_w.l(libshutdown2.o)
    0x0800020a   0x0800020a   0x00000000   Code   RO         5487    .ARM.Collect$$libshutdown$$00000004  c_w.l(libshutdown2.o)
    0x0800020a   0x0800020a   0x00000000   Code   RO         5490    .ARM.Collect$$libshutdown$$00000007  c_w.l(libshutdown2.o)
    0x0800020a   0x0800020a   0x00000000   Code   RO         5493    .ARM.Collect$$libshutdown$$0000000A  c_w.l(libshutdown2.o)
    0x0800020a   0x0800020a   0x00000000   Code   RO         5495    .ARM.Collect$$libshutdown$$0000000C  c_w.l(libshutdown2.o)
    0x0800020a   0x0800020a   0x00000000   Code   RO         5498    .ARM.Collect$$libshutdown$$0000000F  c_w.l(libshutdown2.o)
    0x0800020a   0x0800020a   0x00000002   Code   RO         5499    .ARM.Collect$$libshutdown$$00000010  c_w.l(libshutdown2.o)
    0x0800020c   0x0800020c   0x00000000   Code   RO         5377    .ARM.Collect$$rtentry$$00000000  c_w.l(__rtentry.o)
    0x0800020c   0x0800020c   0x00000000   Code   RO         5379    .ARM.Collect$$rtentry$$00000002  c_w.l(__rtentry2.o)
    0x0800020c   0x0800020c   0x00000006   Code   RO         5391    .ARM.Collect$$rtentry$$00000004  c_w.l(__rtentry4.o)
    0x08000212   0x08000212   0x00000000   Code   RO         5381    .ARM.Collect$$rtentry$$00000009  c_w.l(__rtentry2.o)
    0x08000212   0x08000212   0x00000004   Code   RO         5382    .ARM.Collect$$rtentry$$0000000A  c_w.l(__rtentry2.o)
    0x08000216   0x08000216   0x00000000   Code   RO         5384    .ARM.Collect$$rtentry$$0000000C  c_w.l(__rtentry2.o)
    0x08000216   0x08000216   0x00000008   Code   RO         5385    .ARM.Collect$$rtentry$$0000000D  c_w.l(__rtentry2.o)
    0x0800021e   0x0800021e   0x00000002   Code   RO         5406    .ARM.Collect$$rtexit$$00000000  c_w.l(rtexit.o)
    0x08000220   0x08000220   0x00000000   Code   RO         5454    .ARM.Collect$$rtexit$$00000002  c_w.l(rtexit2.o)
    0x08000220   0x08000220   0x00000004   Code   RO         5455    .ARM.Collect$$rtexit$$00000003  c_w.l(rtexit2.o)
    0x08000224   0x08000224   0x00000006   Code   RO         5456    .ARM.Collect$$rtexit$$00000004  c_w.l(rtexit2.o)
    0x0800022a   0x0800022a   0x00000002   PAD
    0x0800022c   0x0800022c   0x000000f4   Code   RO         1659    .text               context_rvds.o
    0x08000320   0x08000320   0x00000040   Code   RO         5238    .text               startup_gd32e10x.o
    0x08000360   0x08000360   0x00000006   Code   RO         5373    .text               c_w.l(heapauxi.o)
    0x08000366   0x08000366   0x0000004a   Code   RO         5393    .text               c_w.l(sys_stackheap_outer.o)
    0x080003b0   0x080003b0   0x00000012   Code   RO         5395    .text               c_w.l(exit.o)
    0x080003c2   0x080003c2   0x00000002   PAD
    0x080003c4   0x080003c4   0x00000008   Code   RO         5403    .text               c_w.l(libspace.o)
    0x080003cc   0x080003cc   0x0000000c   Code   RO         5464    .text               c_w.l(sys_exit.o)
    0x080003d8   0x080003d8   0x00000002   Code   RO         5475    .text               c_w.l(use_no_semi.o)
    0x080003da   0x080003da   0x00000000   Code   RO         5477    .text               c_w.l(indicate_semi.o)
    0x080003da   0x080003da   0x0000000e   Code   RO          102    i.$Sub$$main        components.o
    0x080003e8   0x080003e8   0x00000028   Code   RO         5286    i.NVIC_SetPriority  systick.o
    0x08000410   0x08000410   0x00000014   Code   RO         5329    i.SysTick_Handler   drv_common.o
    0x08000424   0x08000424   0x00000048   Code   RO         5245    i.SystemInit        system_gd32e10x.o
    0x0800046c   0x0800046c   0x0000004c   Code   RO          635    i.__rt_ffs          kservice.o
    0x080004b8   0x080004b8   0x00000028   Code   RO         1080    i._get_highest_priority_thread  scheduler.o
    0x080004e0   0x080004e0   0x00000014   Code   RO          268    i._has_defunct_thread  idle.o
    0x080004f4   0x080004f4   0x000000c4   Code   RO         1081    i._rt_scheduler_stack_check  scheduler.o
    0x080005b8   0x080005b8   0x000000d0   Code   RO         1179    i._rt_thread_init   thread.o
    0x08000688   0x08000688   0x00000042   Code   RO         1322    i._rt_timer_init    timer.o
    0x080006ca   0x080006ca   0x0000002e   Code   RO         1323    i._rt_timer_remove  timer.o
    0x080006f8   0x080006f8   0x00000018   Code   RO         5288    i.delay_decrement   systick.o
    0x08000710   0x08000710   0x000000bc   Code   RO         3302    i.gpio_init         gd32e10x_gpio.o
    0x080007cc   0x080007cc   0x00000090   Code   RO         3308    i.gpio_pin_remap_config  gd32e10x_gpio.o
    0x0800085c   0x0800085c   0x0000002c   Code   RO         1445    i.main              main.o
    0x08000888   0x08000888   0x0000000e   Code   RO          103    i.main_thread_entry  components.o
    0x08000896   0x08000896   0x00000002   PAD
    0x08000898   0x08000898   0x000000ac   Code   RO         3638    i.nvic_irq_enable   gd32e10x_misc.o
    0x08000944   0x08000944   0x00000014   Code   RO         3639    i.nvic_priority_group_set  gd32e10x_misc.o
    0x08000958   0x08000958   0x00000014   Code   RO         3640    i.nvic_vector_table_set  gd32e10x_misc.o
    0x0800096c   0x0800096c   0x0000010c   Code   RO          839    i.plug_holes        mem.o
    0x08000a78   0x08000a78   0x00000198   Code   RO          637    i.print_number      kservice.o
    0x08000c10   0x08000c10   0x00000184   Code   RO         3794    i.rcu_clock_freq_get  gd32e10x_rcu.o
    0x08000d94   0x08000d94   0x00000020   Code   RO         3814    i.rcu_periph_clock_enable  gd32e10x_rcu.o
    0x08000db4   0x08000db4   0x00000020   Code   RO         3817    i.rcu_periph_reset_disable  gd32e10x_rcu.o
    0x08000dd4   0x08000dd4   0x00000020   Code   RO         3818    i.rcu_periph_reset_enable  gd32e10x_rcu.o
    0x08000df4   0x08000df4   0x00000050   Code   RO          104    i.rt_application_init  components.o
    0x08000e44   0x08000e44   0x00000074   Code   RO          638    i.rt_assert_handler  kservice.o
    0x08000eb8   0x08000eb8   0x0000001c   Code   RO          105    i.rt_components_board_init  components.o
    0x08000ed4   0x08000ed4   0x0000001c   Code   RO          106    i.rt_components_init  components.o
    0x08000ef0   0x08000ef0   0x00000034   Code   RO          641    i.rt_console_set_device  kservice.o
    0x08000f24   0x08000f24   0x000000ac   Code   RO          177    i.rt_device_close   device.o
    0x08000fd0   0x08000fd0   0x0000007c   Code   RO          181    i.rt_device_find    device.o
    0x0800104c   0x0800104c   0x00000148   Code   RO          184    i.rt_device_open    device.o
    0x08001194   0x08001194   0x000000b4   Code   RO          190    i.rt_device_write   device.o
    0x08001248   0x08001248   0x00000020   Code   RO         1083    i.rt_enter_critical  scheduler.o
    0x08001268   0x08001268   0x0000003c   Code   RO         1084    i.rt_exit_critical  scheduler.o
    0x080012a4   0x080012a4   0x00000208   Code   RO          841    i.rt_free           mem.o
    0x080014ac   0x080014ac   0x000000c4   Code   RO         5330    i.rt_hw_board_init  drv_common.o
    0x08001570   0x08001570   0x00000060   Code   RO         5331    i.rt_hw_console_output  drv_common.o
    0x080015d0   0x080015d0   0x00000224   Code   RO         1622    i.rt_hw_hard_fault_exception  cpuport.o
    0x080017f4   0x080017f4   0x0000004c   Code   RO         1623    i.rt_hw_stack_init  cpuport.o
    0x08001840   0x08001840   0x00000016   Code   RO         5332    i.rt_hw_systick_init  drv_common.o
    0x08001856   0x08001856   0x00000002   PAD
    0x08001858   0x08001858   0x00000038   Code   RO          596    i.rt_interrupt_enter  irq.o
    0x08001890   0x08001890   0x0000001c   Code   RO          598    i.rt_interrupt_get_nest  irq.o
    0x080018ac   0x080018ac   0x00000038   Code   RO          599    i.rt_interrupt_leave  irq.o
    0x080018e4   0x080018e4   0x00000018   Code   RO          328    i.rt_ipc_list_resume  ipc.o
    0x080018fc   0x080018fc   0x0000006c   Code   RO          330    i.rt_ipc_list_suspend  ipc.o
    0x08001968   0x08001968   0x00000010   Code   RO          331    i.rt_ipc_object_init  ipc.o
    0x08001978   0x08001978   0x00000068   Code   RO          645    i.rt_kprintf        kservice.o
    0x080019e0   0x080019e0   0x00000006   Code   RO          332    i.rt_list_init      ipc.o
    0x080019e6   0x080019e6   0x00000006   Code   RO         1085    i.rt_list_init      scheduler.o
    0x080019ec   0x080019ec   0x00000006   Code   RO         1324    i.rt_list_init      timer.o
    0x080019f2   0x080019f2   0x0000000e   Code   RO          973    i.rt_list_insert_after  object.o
    0x08001a00   0x08001a00   0x0000000e   Code   RO         1180    i.rt_list_insert_after  thread.o
    0x08001a0e   0x08001a0e   0x0000000e   Code   RO         1325    i.rt_list_insert_after  timer.o
    0x08001a1c   0x08001a1c   0x0000000e   Code   RO          333    i.rt_list_insert_before  ipc.o
    0x08001a2a   0x08001a2a   0x00000010   Code   RO          334    i.rt_list_isempty   ipc.o
    0x08001a3a   0x08001a3a   0x00000010   Code   RO         1326    i.rt_list_isempty   timer.o
    0x08001a4a   0x08001a4a   0x00000012   Code   RO          974    i.rt_list_remove    object.o
    0x08001a5c   0x08001a5c   0x00000012   Code   RO         1181    i.rt_list_remove    thread.o
    0x08001a6e   0x08001a6e   0x00000002   PAD
    0x08001a70   0x08001a70   0x000002bc   Code   RO          843    i.rt_malloc         mem.o
    0x08001d2c   0x08001d2c   0x00000048   Code   RO          651    i.rt_memset         kservice.o
    0x08001d74   0x08001d74   0x000000ec   Code   RO          975    i.rt_object_allocate  object.o
    0x08001e60   0x08001e60   0x000000a0   Code   RO          977    i.rt_object_delete  object.o
    0x08001f00   0x08001f00   0x0000005c   Code   RO          978    i.rt_object_detach  object.o
    0x08001f5c   0x08001f5c   0x00000028   Code   RO          981    i.rt_object_get_information  object.o
    0x08001f84   0x08001f84   0x00000034   Code   RO          982    i.rt_object_get_type  object.o
    0x08001fb8   0x08001fb8   0x0000007c   Code   RO          983    i.rt_object_init    object.o
    0x08002034   0x08002034   0x0000003c   Code   RO          984    i.rt_object_is_systemobject  object.o
    0x08002070   0x08002070   0x0000010c   Code   RO         1086    i.rt_schedule       scheduler.o
    0x0800217c   0x0800217c   0x0000009c   Code   RO         1087    i.rt_schedule_insert_thread  scheduler.o
    0x08002218   0x08002218   0x00000080   Code   RO         1088    i.rt_schedule_remove_thread  scheduler.o
    0x08002298   0x08002298   0x00000048   Code   RO          362    i.rt_sem_init       ipc.o
    0x080022e0   0x080022e0   0x00000090   Code   RO          363    i.rt_sem_release    ipc.o
    0x08002370   0x08002370   0x000001a4   Code   RO          364    i.rt_sem_take       ipc.o
    0x08002514   0x08002514   0x00000028   Code   RO          652    i.rt_set_errno      kservice.o
    0x0800253c   0x0800253c   0x000000b0   Code   RO          653    i.rt_show_version   kservice.o
    0x080025ec   0x080025ec   0x00000022   Code   RO          655    i.rt_sprintf        kservice.o
    0x0800260e   0x0800260e   0x00000012   Code   RO          659    i.rt_strlen         kservice.o
    0x08002620   0x08002620   0x00000028   Code   RO          660    i.rt_strncmp        kservice.o
    0x08002648   0x08002648   0x00000034   Code   RO          661    i.rt_strncpy        kservice.o
    0x0800267c   0x0800267c   0x00000154   Code   RO          847    i.rt_system_heap_init  mem.o
    0x080027d0   0x080027d0   0x00000040   Code   RO         1090    i.rt_system_scheduler_init  scheduler.o
    0x08002810   0x08002810   0x00000028   Code   RO         1091    i.rt_system_scheduler_start  scheduler.o
    0x08002838   0x08002838   0x0000001c   Code   RO         1327    i.rt_system_timer_init  timer.o
    0x08002854   0x08002854   0x00000002   Code   RO         1328    i.rt_system_timer_thread_init  timer.o
    0x08002856   0x08002856   0x00000050   Code   RO         1183    i.rt_thread_create  thread.o
    0x080028a6   0x080028a6   0x00000002   PAD
    0x080028a8   0x080028a8   0x00000054   Code   RO         1187    i.rt_thread_exit    thread.o
    0x080028fc   0x080028fc   0x00000028   Code   RO          270    i.rt_thread_idle_entry  idle.o
    0x08002924   0x08002924   0x000000e4   Code   RO          271    i.rt_thread_idle_excute  idle.o
    0x08002a08   0x08002a08   0x00000060   Code   RO          273    i.rt_thread_idle_init  idle.o
    0x08002a68   0x08002a68   0x0000007c   Code   RO         1189    i.rt_thread_init    thread.o
    0x08002ae4   0x08002ae4   0x00000014   Code   RO         1191    i.rt_thread_mdelay  thread.o
    0x08002af8   0x08002af8   0x0000009c   Code   RO         1192    i.rt_thread_resume  thread.o
    0x08002b94   0x08002b94   0x0000000c   Code   RO         1194    i.rt_thread_self    thread.o
    0x08002ba0   0x08002ba0   0x00000080   Code   RO         1195    i.rt_thread_sleep   thread.o
    0x08002c20   0x08002c20   0x000000c4   Code   RO         1196    i.rt_thread_startup  thread.o
    0x08002ce4   0x08002ce4   0x000000dc   Code   RO         1197    i.rt_thread_suspend  thread.o
    0x08002dc0   0x08002dc0   0x000000b4   Code   RO         1199    i.rt_thread_timeout  thread.o
    0x08002e74   0x08002e74   0x0000000a   Code   RO         1200    i.rt_thread_yield   thread.o
    0x08002e7e   0x08002e7e   0x00000020   Code   RO            2    i.rt_tick_from_millisecond  clock.o
    0x08002e9e   0x08002e9e   0x00000002   PAD
    0x08002ea0   0x08002ea0   0x0000000c   Code   RO            3    i.rt_tick_get       clock.o
    0x08002eac   0x08002eac   0x00000030   Code   RO            4    i.rt_tick_increase  clock.o
    0x08002edc   0x08002edc   0x000000b4   Code   RO         1329    i.rt_timer_check    timer.o
    0x08002f90   0x08002f90   0x000000b8   Code   RO         1330    i.rt_timer_control  timer.o
    0x08003048   0x08003048   0x000000d4   Code   RO         1333    i.rt_timer_detach   timer.o
    0x0800311c   0x0800311c   0x00000054   Code   RO         1336    i.rt_timer_init     timer.o
    0x08003170   0x08003170   0x000001c0   Code   RO         1339    i.rt_timer_start    timer.o
    0x08003330   0x08003330   0x000000c0   Code   RO         1340    i.rt_timer_stop     timer.o
    0x080033f0   0x080033f0   0x00000328   Code   RO          664    i.rt_vsnprintf      kservice.o
    0x08003718   0x08003718   0x00000016   Code   RO          665    i.rt_vsprintf       kservice.o
    0x0800372e   0x0800372e   0x00000004   Code   RO          107    i.rti_board_end     components.o
    0x08003732   0x08003732   0x00000004   Code   RO          108    i.rti_board_start   components.o
    0x08003736   0x08003736   0x00000004   Code   RO          109    i.rti_end           components.o
    0x0800373a   0x0800373a   0x00000004   Code   RO          110    i.rti_start         components.o
    0x0800373e   0x0800373e   0x0000002a   Code   RO          111    i.rtthread_startup  components.o
    0x08003768   0x08003768   0x00000026   Code   RO          666    i.skip_atoi         kservice.o
    0x0800378e   0x0800378e   0x00000002   PAD
    0x08003790   0x08003790   0x00000100   Code   RO         5246    i.system_clock_120m_hxtal  system_gd32e10x.o
    0x08003890   0x08003890   0x00000008   Code   RO         5247    i.system_clock_config  system_gd32e10x.o
    0x08003898   0x08003898   0x0000004c   Code   RO         5289    i.systick_config    systick.o
    0x080038e4   0x080038e4   0x00000090   Code   RO         4862    i.usart_baudrate_set  gd32e10x_usart.o
    0x08003974   0x08003974   0x00000008   Code   RO         4866    i.usart_data_transmit  gd32e10x_usart.o
    0x0800397c   0x0800397c   0x00000090   Code   RO         4867    i.usart_deinit      gd32e10x_usart.o
    0x08003a0c   0x08003a0c   0x0000000a   Code   RO         4871    i.usart_enable      gd32e10x_usart.o
    0x08003a16   0x08003a16   0x0000001a   Code   RO         4872    i.usart_flag_clear  gd32e10x_usart.o
    0x08003a30   0x08003a30   0x0000001e   Code   RO         4873    i.usart_flag_get    gd32e10x_usart.o
    0x08003a4e   0x08003a4e   0x00000010   Code   RO         4878    i.usart_hardware_flow_cts_config  gd32e10x_usart.o
    0x08003a5e   0x08003a5e   0x00000010   Code   RO         4879    i.usart_hardware_flow_rts_config  gd32e10x_usart.o
    0x08003a6e   0x08003a6e   0x00000010   Code   RO         4894    i.usart_parity_config  gd32e10x_usart.o
    0x08003a7e   0x08003a7e   0x00000010   Code   RO         4896    i.usart_receive_config  gd32e10x_usart.o
    0x08003a8e   0x08003a8e   0x00000010   Code   RO         4906    i.usart_stop_bit_set  gd32e10x_usart.o
    0x08003a9e   0x08003a9e   0x00000010   Code   RO         4910    i.usart_transmit_config  gd32e10x_usart.o
    0x08003aae   0x08003aae   0x00000010   Code   RO         4911    i.usart_word_length_set  gd32e10x_usart.o
    0x08003abe   0x08003abe   0x00000014   Data   RO          112    .constdata          components.o
    0x08003ad2   0x08003ad2   0x000000c9   Data   RO          191    .constdata          device.o
    0x08003b9b   0x08003b9b   0x00000016   Data   RO          276    .constdata          idle.o
    0x08003bb1   0x08003bb1   0x000001f7   Data   RO          366    .constdata          ipc.o
    0x08003da8   0x08003da8   0x00000122   Data   RO          668    .constdata          kservice.o
    0x08003eca   0x08003eca   0x0000003c   Data   RO          849    .constdata          mem.o
    0x08003f06   0x08003f06   0x00000080   Data   RO          989    .constdata          object.o
    0x08003f86   0x08003f86   0x0000004e   Data   RO         1093    .constdata          scheduler.o
    0x08003fd4   0x08003fd4   0x000000b9   Data   RO         1201    .constdata          thread.o
    0x0800408d   0x0800408d   0x0000005c   Data   RO         1341    .constdata          timer.o
    0x080040e9   0x080040e9   0x00000003   PAD
    0x080040ec   0x080040ec   0x00000045   Data   RO          367    .conststring        ipc.o
    0x08004131   0x08004131   0x00000003   PAD
    0x08004134   0x08004134   0x000000eb   Data   RO          850    .conststring        mem.o
    0x0800421f   0x0800421f   0x00000001   PAD
    0x08004220   0x08004220   0x00000042   Data   RO         1202    .conststring        thread.o
    0x08004262   0x08004262   0x00000002   PAD
    0x08004264   0x08004264   0x00000004   Data   RO          113    .rti_fn.0           components.o
    0x08004268   0x08004268   0x00000004   Data   RO          114    .rti_fn.0.end       components.o
    0x0800426c   0x0800426c   0x00000004   Data   RO          115    .rti_fn.1.end       components.o
    0x08004270   0x08004270   0x00000004   Data   RO          116    .rti_fn.6.end       components.o
    0x08004274   0x08004274   0x00000020   Data   RO         5530    Region$$Table       anon$$obj.o


    Execution Region RW_IRAM1 (Exec base: 0x20000000, Load base: 0x08004294, Size: 0x00000cc8, Max: 0x00008000, ABSOLUTE, COMPRESSED[0x0000005c])

    Exec Addr    Load Addr    Size         Type   Attr      Idx    E Section Name        Object

    0x20000000   COMPRESSED   0x00000004   Data   RW            6    .data               clock.o
    0x20000004   COMPRESSED   0x00000009   Data   RW          601    .data               irq.o
    0x2000000d   COMPRESSED   0x00000003   PAD
    0x20000010   COMPRESSED   0x0000000c   Data   RW          669    .data               kservice.o
    0x2000001c   COMPRESSED   0x00000020   Data   RW          851    .data               mem.o
    0x2000003c   COMPRESSED   0x000000a4   Data   RW          990    .data               object.o
    0x200000e0   COMPRESSED   0x0000001c   Data   RW         1094    .data               scheduler.o
    0x200000fc   COMPRESSED   0x0000000c   Data   RW         1203    .data               thread.o
    0x20000108   COMPRESSED   0x00000014   Data   RW         1342    .data               timer.o
    0x2000011c   COMPRESSED   0x00000010   Data   RW         1625    .data               cpuport.o
    0x2000012c   COMPRESSED   0x00000004   Data   RW         5248    .data               system_gd32e10x.o
    0x20000130   COMPRESSED   0x00000004   Data   RW         5290    .data               systick.o
    0x20000134        -       0x00000190   Zero   RW          275    .bss                idle.o
    0x200002c4        -       0x00000080   Zero   RW          667    .bss                kservice.o
    0x20000344        -       0x00000020   Zero   RW          848    .bss                mem.o
    0x20000364        -       0x00000100   Zero   RW         1092    .bss                scheduler.o
    0x20000464        -       0x00000060   Zero   RW         5404    .bss                c_w.l(libspace.o)
    0x200004c4   COMPRESSED   0x00000004   PAD
    0x200004c8        -       0x00000400   Zero   RW         5236    HEAP                startup_gd32e10x.o
    0x200008c8        -       0x00000400   Zero   RW         5235    STACK               startup_gd32e10x.o


==============================================================================

Image component sizes


      Code (inc. data)   RO Data    RW Data    ZI Data      Debug   Object Name

        92         12          0          4          0      16488   clock.o
       222         50         36          0          0       5432   components.o
       244         26          0          0          0        772   context_rvds.o
       624        342          0         16          0       3634   cpuport.o
       804        350        201          0          0       7551   device.o
       334         30          0          0          0       2057   drv_common.o
         0          0          0          0          0       4220   gd32e10x_adc.o
       332          6          0          0          0       1736   gd32e10x_gpio.o
       212         28          0          0          0       1952   gd32e10x_misc.o
       484         48          0          0          0       2976   gd32e10x_rcu.o
       474         16          0          0          0       7997   gd32e10x_usart.o
       384         84         22          0        400       5698   idle.o
       820        182        572          0          0      31879   ipc.o
       140         26          0          9          0       2118   irq.o
      2056        236        290         12        128      12246   kservice.o
        44         26          0          0          0      23347   main.o
      1828        664        295         32         32       5341   mem.o
       796        270        128        164          0       9990   object.o
       990        250         78         28        256       9542   scheduler.o
        64         26        336          0       2048        888   startup_gd32e10x.o
       336         32          0          4          0       1815   system_gd32e10x.o
       140         18          0          4          0      26050   systick.o
      1450        412        251         12          0      14717   thread.o
      1478        484         92         20          0      11671   timer.o

    ----------------------------------------------------------------------
     14360       3618       2342        308       2864     210117   Object Totals
         0          0         32          0          0          0   (incl. Generated)
        12          0          9          3          0          0   (incl. Padding)

    ----------------------------------------------------------------------

      Code (inc. data)   RO Data    RW Data    ZI Data      Debug   Library Member Name

        90          0          0          0          0          0   __dczerorl2.o
         8          0          0          0          0         68   __main.o
         0          0          0          0          0          0   __rtentry.o
        12          0          0          0          0          0   __rtentry2.o
         6          0          0          0          0          0   __rtentry4.o
        52          8          0          0          0          0   __scatter.o
        28          0          0          0          0          0   __scatter_zi.o
        18          0          0          0          0         80   exit.o
         6          0          0          0          0        152   heapauxi.o
         0          0          0          0          0          0   indicate_semi.o
         2          0          0          0          0          0   libinit.o
         2          0          0          0          0          0   libinit2.o
         2          0          0          0          0          0   libshutdown.o
         2          0          0          0          0          0   libshutdown2.o
         8          4          0          0         96         68   libspace.o
         2          0          0          0          0          0   rtexit.o
        10          0          0          0          0          0   rtexit2.o
        12          4          0          0          0         68   sys_exit.o
        74          0          0          0          0         80   sys_stackheap_outer.o
         2          0          0          0          0         68   use_no_semi.o

    ----------------------------------------------------------------------
       342         16          0          0        100        584   Library Totals
         6          0          0          0          4          0   (incl. Padding)

    ----------------------------------------------------------------------

      Code (inc. data)   RO Data    RW Data    ZI Data      Debug   Library Name

       336         16          0          0         96        584   c_w.l

    ----------------------------------------------------------------------
       342         16          0          0        100        584   Library Totals

    ----------------------------------------------------------------------

==============================================================================


      Code (inc. data)   RO Data    RW Data    ZI Data      Debug   

     14702       3634       2342        308       2964     203833   Grand Totals
     14702       3634       2342         92       2964     203833   ELF Image Totals (compressed)
     14702       3634       2342         92          0          0   ROM Totals

==============================================================================

    Total RO  Size (Code + RO Data)                17044 (  16.64kB)
    Total RW  Size (RW Data + ZI Data)              3272 (   3.20kB)
    Total ROM Size (Code + RO Data + RW Data)      17136 (  16.73kB)

==============================================================================

